:020000040800F2
:10000000381300207D0200088B4700084545000892
:100010008947000855280008E54B0008000000004B
:10002000000000000000000000000000E947000898
:10003000CF2A0008000000008D470008EB470008A9
:10004000970200089702000897020008970200082C
:10005000970200089702000897020008970200081C
:10006000970200089702000897020008970200080C
:100070005D2A0008692A0008752A0008812A0008FC
:100080008D2A0008992A00089702000897020008A4
:10009000D94B000897020008970200089702000851
:1000A00097020008970200089702000897020008CC
:1000B00097020008970200089702000897020008BC
:1000C00097020008970200089702000897020008AC
:1000D00097020008B54B0008C14B000897020008C2
:1000E000970200089702000897020008970200088C
:1000F000970200089702000897020008970200087C
:10010000970200089702000897020008970200086B
:10011000970200089702000897020008970200085B
:10012000970200089702000897020008970200084B
:1001300000F002F800F092F80AA090E8000C824467
:100140008344AAF10107DA4501D100F087F8AFF244
:10015000090EBAE80F0013F0010F18BFFB1A43F0A5
:1001600001031847286B0000486B0000103A24BFB9
:1001700078C878C1FAD8520724BF30C830C144BF0C
:1001800004680C607047000000230024002500264E
:10019000103A28BF78C1FBD8520728BF30C148BFEA
:1001A0000B6070476E2900F0F581702900F03F83E5
:1001B000662906F04784652906F04484672906F01D
:1001C0004184612906F0408403681B0A28BF41F07E
:1001D0008001692900F0A281642900F09F817529BE
:1001E00000F09C816F2900F0CC82782900F00B830D
:1001F000E92900F06782E42900F06482F52900F023
:100200006182EF2900F0C982F82900F00A830368AF
:10021000DB0928BF41F08001632901F019807329AF
:1002200001F01E80E32901F02980F32901F02E80DE
:10023000002070471FB501F0CDF804000020002118
:1002400005F076FE401C60600020002105F05AFE9B
:10025000E06000F0EFF81FBD10B510BD01F08CF8A4
:100260001146FFF7E7FF05F0B5FC01F09DF903B477
:10027000FFF7F2FF03BC01F067FC0000094880476C
:1002800009480047FEE7FEE7FEE7FEE7FEE7FEE778
:10029000FEE7FEE7FEE7FEE704480549054A064B90
:1002A00070470000EF47000831010008380D0020BA
:1002B00038130020380F0020380F00207CB51D4671
:1002C00016460C00009001D02044401E074B7B4492
:1002D0002A4669460190304600F075F905461CB182
:1002E0000020694600F082F928467CBD2503000005
:1002F000032A40F2308010F0030C00F0158011F852
:10030000013BBCF1020F624498BF11F801CB00F829
:10031000013B38BF11F8013BA2F1040298BF00F87D
:1003200001CB38BF00F8013B11F0030300F025803A
:10033000083AC0F0088051F8043B083A51F804CB61
:10034000A0E80810F5E7121D5CBF51F8043B40F827
:10035000043BAFF30080D20724BF11F8013B11F832
:1003600001CB48BF11F8012B24BF00F8013B00F876
:1003700001CB48BF00F8012B704710B5203AC0F000
:100380000B80B1E81850203AA0E81850B1E8185096
:10039000A0E81850BFF4F5AF5FEA027C24BFB1E8D3
:1003A0001850A0E8185044BF18C918C0BDE8104044
:1003B0005FEA827C24BF51F8043B40F8043B08BF4D
:1003C0007047D20728BF31F8023B48BF11F8012B14
:1003D00028BF20F8023B48BF00F8012B70474FF0C0
:1003E000000200B5134694469646203922BFA0E885
:1003F0000C50A0E80C50B1F12001BFF4F7AF090791
:1004000028BFA0E80C5048BF0CC05DF804EB890081
:1004100028BF40F8042B08BF704748BF20F8022BC4
:1004200011F0804F18BF00F8012B704770477047DC
:100430007047000070B5064C7C44064D7D4403E0D7
:10044000206820448047241DAC42F9D170BD0000D3
:10045000AC690000AC69000070B5044685690068AD
:10046000C10601D5302600E02026C00707D070BDA8
:10047000D4E9012130469047206A401C20626D1E5D
:10048000F6D570BD70B5044685690078C00707D100
:1004900070BDD4E9012120209047206A401C2062D1
:1004A0006D1EF6D570BD09684A0501D540B270478A
:1004B000C905FCD500B2704709684A0501D5C0B22C
:1004C0007047C905FCD580B2704770B50C4605462B
:1004D000012A05D02878800600D5EA69002302E0C9
:1004E000012305E05B1C934202D2E05C0028F9D1B5
:1004F000A869E618C01AA861286A18442862284624
:10050000FFF7AAFF04E0D5E9012114F8010B904799
:10051000B442F8D32846FFF7B5FF70BD2DE9F0418E
:100520000646002410687529314616A510D0FFF73D
:10053000BAFF002802DA404213A507E031688A07B3
:1005400001D512A502E0490704D511A5012401E057
:10055000FFF7B2FF00210A2206F1240709E0B0FBF1
:10056000F2FCB0FBF2F302FB1C003030785418466A
:10057000491C0028F3D123462A463046BDE8F04105
:1005800000F076BA000000002D0000002B000000F3
:100590002000000011680268006A530501D5087048
:1005A0000AE0D30501D5088006E0130603D5C2177B
:1005B000C1E9000200E008600120704701694A1C9F
:1005C00002610878704700B58FB0CDE90131002194
:1005D000059105497944CDE903101146684600F0BC
:1005E00031F90FB000BD0000E5FFFFFF0A6802F817
:1005F000010B0A607047D1E900239A4202D2531CD2
:100600000B601070704700002DE9FF5F15468A46A9
:100610000446DFF8AC80F8440027D8E900103E46D5
:10062000CDE9001010E03AF816106A4602A800F072
:1006300083FE411C07D02178890603D5E269391869
:1006400091420DD80744761C2078800602D5E069D7
:10065000B84205DDAE42E6DB3AF816000028E2D1EA
:10066000A069C01BA0612046FFF7F6FED8E9001084
:10067000CDE90010002017E03AF818106A4602A8E9
:1006800000F05AFEB0F1FF3F81460BD000250DF17E
:10069000080B05E0D4E901211BF8050090476D1C0B
:1006A0004D45F7D308F10100B0428046E4DB206AF3
:1006B000384420622046FFF7E5FEBDE8FF9F0000BA
:1006C000766500002DE9F0418046D21D22F0070238
:1006D0000025D2E90002F52915A614D0011E72F1F9
:1006E000000106DA0023D0EB030063EB020211A63F
:1006F00008E0D8F800108B0701D50FA602E04907E3
:1007000001D50EA601251146002408F1240704E0B6
:1007100000F069F930323A55641C50EA0102F7D111
:100720002B46324621464046BDE8F04100F0A0B9D4
:10073000000000002D0000002B0000002000000041
:1007400030B4002100F1240408E002F00705D208CB
:10075000303542EA4372DB086554491C52EA03050E
:10076000F3D10468002310A2250707D5A40600D4FE
:1007700021B1C46901230DA2641EC46130BC00F024
:1007800077B910B5044621461068FFF795FE02467A
:100790002046BDE810400023D2E7D21D22F0070119
:1007A000D1E90023CCE70000000000003000000089
:1007B000F0B40D460188090502D5214C7C4402E0C5
:1007C0001F4C7C440E34002100F1240608E002F0A6
:1007D0000F071209E75D42EA03721B097754491CAF
:1007E00052EA0307F3D102780023120704D5702DD3
:1007F00006D009B1022311342246F0BC00F038B90A
:1008000001231034F8E770B504460D462146106800
:10081000FFF752FE024629462046BDE870400023FD
:10082000C6E7D21D22F00703D3E90023C0E703681F
:10083000126843F0200303600823C3610023B7E775
:10084000D86300002DE9F05F894604464FF0000AA6
:10085000DFF874B1FB44C0F820A02046E168884767
:10086000002874D0252806D0D4E901219047206AB9
:10087000401C2062F1E700265F462046E168884779
:100880002028054607DB312D05D2781910F8200CF9
:1008900008B10643F1E7B00701D526F00406C4F815
:1008A0001CA00027C4F818A02A2D09D0284605F05E
:1008B00024F938B304EB8708303DC8F8185019E024
:1008C00059F8041B204604EB87029161E1688847D0
:1008D000012F054618D1E069002820DA26F020060D
:1008E0001DE0D8F8180000EB800005EB4000303820
:1008F000C8F818002046E1688847054605F0FDF86D
:100900000028EED1012F0AD02E2D08D12046E16813
:1009100088477F1C0546022F46F02006C4DBA069ED
:10092000002803DA404246F00106A061F00701D03A
:1009300026F010066C2D0BD0682D09D04C2D39D027
:100940006A2D35D0742D35D07A2D33D016E038E0AD
:10095000E1682F4620468847B842054609D16C2FEA
:1009600026D04FF48060E16806432046884705465C
:1009700004E06C2F1AD04FF4807006430DB3A5F13C
:100980004100192802D8203546F400664A46294617
:10099000204626604E46FFF705FC80B101280BD0AB
:1009A000F61D26F0070000F1080956E74020E4E7AD
:1009B0008020D8E70020D6E706F104094DE7284655
:1009C00052E7206ABDE8F09F686300007CB50546E9
:1009D00000236846CDE9003300F07AFC69462846DA
:1009E00005F012F87CBD30B5B0F10A024FEA900E66
:1009F00071F100034EEA817EB0EB0E0061EB9101D4
:100A00004FEA101E4EEA017E10EB0E0041EB111171
:100A10004FEA102E4EEA016E10EB0E0041EB112151
:100A20004FEA104E4EEA014E10EB0E0041EB114121
:100A3000401841F100014FEAD00040EA41704FEA0E
:100A4000D10110EB80054FEA810444EA907444EB35
:100A500001046D1944EB0404521BA3414FF0000341
:100A600048BF0A3200D530BD401C41F1000130BD05
:100A70002DE9F0470D4699469246044600F12408B8
:100A80000168880604D5E06921F01001216000E0CA
:100A90000120A84201DD471B00E00027A1697A1967
:100AA00002EB0900081AA0612078C00602D4204693
:100AB000FFF7D2FC002608E0D4E901211AF806006D
:100AC0009047206A401C761C20624E45F4DB20785B
:100AD000C0060AD52046FFF7BFFC06E0D4E9012195
:100AE00030209047206A401C2062381EA7F1010781
:100AF000F4DC07E0D4E9012118F805009047206AEA
:100B0000401C2062281EA5F10105F3DC2046FFF7FA
:100B1000B9FC2078000602D50220BDE8F08701204C
:100B2000FBE770472DE9FF4F0C461E464FF0FF379D
:100B30008BB0D2E90001DDF860800A908A46C1F3EB
:100B40000A5505B93D46002108464FF00000BAF1AC
:100B5000000F00F4400005DA00EB80004FF4400184
:100B600001EA50004FEA9059B9F1010F00DDB94692
:100B70000A9850EA4A000ED044F61050A5F2FF350C
:100B800045432F14B8F1000F1ED07542291E1EDDFB
:100B9000C9F100021CE0B8F1010F4FF0000001D0D4
:100BA000302103E0F24305E02154401CB042FBDB5E
:100BB00030460022002121540B99C1F80880C1E978
:100BC00000200FB0BDE8F08FBD1B6D1CDEE74A466C
:100BD00000DA694206A800F075FC06AB93E807004E
:100BE00003AB83E8070050460A9901F0FEF98DE84F
:100BF0000700A0F500501F3800900398002D0ADD73
:100C000042F21F014A460844002303A903906846A4
:100C100001F0AAFC09E0A0F500504A461F38002365
:100C200003A90390684601F0C9FC8DE807000004A1
:100C3000000C03D04FF0FF30410800E01046B8F13F
:100C4000000F03D00022009215461EE0751E05D449
:100C5000FFF7C9FE303262556D1EF9D5B346012249
:100C6000084302D000227F1C04E02078302801D104
:100C700000227F1E002A099784D01DE0112D07DA7B
:100C8000FFF7B1FE303262556D1C50EA0102F5D11A
:100C9000084302D00098C8B10EE00021681E05E0AC
:100CA000235C625C63542254401E491C8142F7DB82
:100CB000AB46A81B401E0990002004F80B000B98BF
:100CC000099AC0F80880C0E9002B7AE711264FF096
:100CD000000857E72DE9F04F88460446D21D22F060
:100CE000070191B0D1E90001CDE90A0104F058FEF5
:100CF00002460B98C00F01D02D2007E02068810725
:100D000001D52B2002E0202101EAC000032A09902E
:100D100001D0072A05DB03464146204600F072FB5E
:100D20000BE12078800601D5E06900E00620B8F1EB
:100D3000650F814606D0B8F1660F18D0B8F1670F7D
:100D400070D131E00020B9F1110F009001DB1123C7
:100D500001E009F101030AAA01A90CA8FFF7E2FECC
:100D6000DDE90C70002609F10105834647E001200A
:100D70004B4600904FF000470AAA01A90CA8FFF7C4
:100D8000D1FEDDE90DB00C995D46002610B909F1E0
:100D900001000D18B9EB050003D4C0F1FF3609F1CD
:100DA0000105A5EB09002BE0B9F1010F01DA4FF0C5
:100DB00001090020B9F1110F0090484601DD11230F
:100DC00000E003460AAA01A90CA8FFF7ABFEDDE983
:100DD0000C704D4600268346207800070AD4AB45A8
:100DE00000DA5D4601A8012D04DD411911F8011C4E
:100DF000302907D04F4502DA17F1040F04DA012039
:100E000082460FE06D1EEEE7002F02DCED1B3E4434
:100E100003E0781CA84200DD7D1CB81B00F1010A2C
:100E20004FF000472078000703D4AA4501DB4FF0BC
:100E3000FF3A0021B7F1004F0DF143088DF8431040
:100E400024D002202B23002F01DA7F422D230A21F8
:100E5000021EA0F1010000DC5FB197FBF1FC97FBE3
:100E6000F1F201FB1C7C17460CF1300C08F801CDA7
:100E7000EEE7A8F1010003702188090501D545219D
:100E800000E06521A0F1010800F8011C09980FA9F4
:100E9000A1EB0807FF1D00B10120411901EBEA7029
:100EA000A1693844081A401EA0612078C00602D407
:100EB0002046FFF7D1FA099828B1D4E901219047DB
:100EC000206A401C20622078C00622D52046FFF709
:100ED000C3FA1EE0002E04DBB34502DD01A8805DED
:100EE00000E03020D4E901219047206A401C2062B4
:100EF000761CAAF101005FEA000A0AD100F06AFA42
:100F0000C0680168405CD4E901219047206A401C18
:100F10002062281EA5F10105DCDC07E0D4E90121EF
:100F200018F8010B9047206A401C2062381EA7F178
:100F30000107F3DC2046FFF7A5FA032011B041E6D4
:100F40002DE9F04F04460D46D21D22F0070089B06E
:100F5000D0E900974846394604F022FD0246F80FD2
:100F600001D02D2307E02068810701D52B2302E063
:100F7000202101EAC0038DF820300BB1012000E0F0
:100F80000020032A824601D0072A04DB2946204696
:100F900000F038FA3FE12078800601D40D2500E00A
:100FA000E569C7F30A560D2D49DA00214FEA175BB0
:100FB00008464FF00000002F00F4400007DA00EB75
:100FC00080004FF4400100EBD07001EA6000811511
:100FD000012901DD4FF0FF3100224FEA850CBCF101
:100FE000180F06D31346ACF118004FF08052C240E0
:100FF00003E04FF4801323FA0CF30CF10C0CBCF15A
:10100000200F04D3ACF1200C09FA0CF001E007FA30
:101010000CF000294FF0004801DD18B90FE00ED1A7
:1010200040450CD319EB02095F4121B9404502D17B
:101030009F4329EA0209BBEB175F00D0761C20888A
:10104000000502D57B48784402E07A487844193894
:1010500008AA302302F80A30037C0AF10101002EAD
:101060000AF1020A53546A4602DC4FF0300101E0F3
:101070004FF031014FF001088DF8001002D0A6F2B8
:10108000FF3603E059EA470100D06B4E002D02DC29
:101090002178090704D54FF002082E218DF80110A0
:1010A000C44600210BE0C7F303433F01C35C491C66
:1010B0006D1E02F80830052908F1010801DA002D3B
:1010C000F1DC00210CE000EB1973491C1B786D1E4C
:1010D000082902F808304FEA091908F1010801DA75
:1010E000002DF0DC21688B0602D516E0A8F101087E
:1010F000E04505DD02EB080313F8013C302BF5D089
:10110000B8F1000F09DD02EB080313F8013C2E2BA8
:1011100003D1090701D4A8F10108002D05DD3E2106
:1011200002F808106D1E08F10108407C002E02F83C
:10113000080008F1010804DA2D20764202F80800C0
:1011400002E02B2002F808000A214FF47A70864250
:1011500008F101080BDB96FBF0F3303302F808309E
:1011600096FBF0F308F1010800FB136601E0642E22
:101170000CDB642096FBF0F3303302F8083096FB6A
:10118000F0F308F1010800FB136601E00A2E06DB0C
:1011900096FBF1F0303002F8080008F1010896FBE8
:1011A000F1F001FB1060303002F80800A16908F18D
:1011B000010808EB050202EB0A00081AA06120787A
:1011C000C00602D42046FFF747F9216A08AE01EBBA
:1011D0000A00206204E0D4E9012116F8010B9047CF
:1011E000BAF1010AF7D22078C00602D52046FFF7EF
:1011F00033F96E4609E016F8010B3E280FD0D4E90A
:1012000001219047206A401C2062B8F10108F2D207
:101210002046FFF737F909B00320BDE8F08F206AB8
:101220002844206203E0D4E90121302090476D1E5C
:10123000EBD3F8E79A5B000002FCFFFF10B54369AF
:1012400013B1AFF3008001E0FFF73FF9012010BDBB
:10125000127800F124010A7000224A700122EDE7A1
:1012600011684FF0FF32E9E710B5436913B1AFF3EE
:10127000008001E0FFF7C8F9012010BD128800F1DD
:10128000240182840022C2840122EDE711684FF01C
:10129000FF32E9E70FB4002300B589B00CA9009133
:1012A0000B99CB60214B7B440693214B7B440793E6
:1012B00004236FF00042CDE901321E4A7A446B46A6
:1012C00008920246002005F021FC09B05DF814FBED
:1012D00070B506464FF0FF3015460C46324686B0D4
:1012E0000091CDE9010169460020049004A8FFF7B0
:1012F000D1FF02460498211825B108B1084600E044
:1013000020462860049800280DD0002A02DD0098AD
:10131000884208D03246081B69460094CDE9010492
:1013200004A8FFF7B7FF06B070BD0000DB010000A6
:10133000F30100003301000070B516460C46054667
:1013400000F040F8036893F80101012806D0FF2C53
:101350000FD8185D68B101202C7070BDD3F807015B
:101360003246214603F2071303442846BDE8704085
:1013700018474FF0FF3070BD754600F01FF9AE46BC
:1013800005006946534620F00700854618B020B591
:10139000FEF782FFBDE820404FF000064FF0000747
:1013A0004FF000084FF0000B21F00701AC46ACE80D
:1013B000C009ACE8C009ACE8C009ACE8C0098D467A
:1013C0007047000010B500F005F8001D10BD00BF0B
:1013D000614B000000487047F40C002010B500F08D
:1013E000F1F8006810BD10B5044600F0EBF8046099
:1013F00010BD10B50446FFF7E5FF0068005D00F082
:10140000010010BD2DE9F0411F4604460326016886
:10141000072A01F4006004DB08B116A505E016A553
:1014200003E008B115A500E015A521F0100020602B
:10143000A069C01EA0610FB1401EA0612046FFF749
:101440000BF84FB1D4E9012138469047206A401C7F
:101450002062C01C206206E0206AFAE7D4E901217C
:1014600015F8010B9047761EF8D22046FFF70AF8D0
:10147000BDE8F0814E414E006E616E00494E46005F
:10148000696E6600426842B1016811F8013B23B100
:10149000521EC0E90012184670470121C160881E23
:1014A000704742685AB1C368016843B983688B4288
:1014B00005D0491E521CC0E90012002070474FF0B1
:1014C000FF3070472DE9F047814616468AB035480F
:1014D00078440DC88DE80D0032487844801C03AC78
:1014E0000DC884E80D0041F69B300844372190FB7D
:1014F000F1F290FBF1F5A5F1800501FB12041B3C14
:1015000002D56442012000E00020DFF898A0804668
:101510000027FA44AAF1BE0A0EE0E0070AD03246DC
:10152000684607EB470101230AEB810101F046F809
:101530008DE8070064107F1C002CEED1194F7F440A
:10154000AE3F19E0E80715D007EB04100DF1180ABB
:1015500090E80E008AE80E00C068F04201D19819A8
:1015600008903246012306A903A801F027F803AB2F
:1015700083E807006D10641C002DE3D14FF00103D8
:1015800032466946B8F1000F03A802D000F0ECFF24
:1015900001E001F013F8C9E90001C9F808200AB018
:1015A000BDE8F087A057000010B50446AFF30080F7
:1015B0002046BDE81040FEF75ABE000000487047C4
:1015C000D40C002000487047D40C00202DE9FF4FB8
:1015D00006468BB00878FF2806D0491C2D2805D078
:1015E00000244FF0000908E000200CE00124F8E797
:1015F00009EB8903491C00EB43090878FF28F7D160
:1016000014B1C9F100008146107800252C46AA4685
:1016100029462D2801D02B2804D1521C2D2813D067
:10162000002082468B461078FF280FD04FF0000C28
:101630000A21521CA5FB017804FB018105FB0C115A
:10164000C5194BEB0104EEE70120EAE7002108464B
:101650004FF00000BAF1000F02D000EB800040080C
:10166000C0F38157012F01DD4FF0FF370E9955EA86
:10167000040009EB01080BD04FF0020918F5FA7FBE
:1016800016DA4FEACA70002F706008DD012007E00B
:101690004FEACA70C6E900B00FB0BDE8F08F002075
:1016A0003060FFF78FFFC0F800901821084616E061
:1016B000B8F5FA7F18DD002F02DAF748784401E028
:1016C000F6487844D0E90010C6E9001040EACA7034
:1016D0007060FFF777FFC0F80090142108460FB044
:1016E000BDE8F04F05F0ABB9002108464FF000000F
:1016F000B8F10001099002DAC7F1000200E03A46B1
:1017000001DAC8F1000106A8FFF7DCFE06AB93E89A
:10171000070003AB83E8070044F23E005BEA0401E4
:101720000090584604D144F21E012C465D460091BB
:10173000210C0904014306D10099240444EA15440C
:101740002D041039009104F07F41014306D1009926
:10175000240244EA15642D020839009104F0704116
:10176000014306D10099240144EA15742D01091F93
:10177000009104F04041014306D10099A40044EADD
:101780009574AD00891E009104F00041084304D116
:1017900000986D196441401E00904FF001033A46D5
:1017A0006846B8F1000FCDE9014503A902DD00F05C
:1017B0001AFF01E000F0EDFEBAF1000F04460D46FD
:1017C00001D084F00044002108464FF00000099940
:1017D00040F2FF77484010F00C0F07D124F0004092
:1017E000284303D0C4F30A50B84212D1FFF7EAFEEF
:1017F000C0F80090C4F30A50B8420AD1A84878440F
:10180000D0E90010C6E9001004F000410843706000
:1018100042E7C6E900543FE72DE9FF4F1F464FF06E
:10182000000A4FF0FF38454691B0D7E90146CDF8A0
:101830003CA0FFF7CFFDC0680168405C1090B9691B
:1018400012986D1C8847396A814688470028F6D16E
:10185000B9F1FF3F0AD0002E24F4D06411DDB9F1B4
:101860002B0F08D0B9F12D0F0BD102E0404615B077
:1018700013E744F48064B96912986D1C8847761E9A
:101880008146600504A901D52D2000E02B20002E03
:1018900001F1010B0DF130088DF810003FDDB9F1B9
:1018A000690F08D0B9F1490F05D0B9F16E0F02D018
:1018B000B9F14E0F1CD13B4601A8009580E85002BB
:1018C000DDE912126FF0020005F024F9C11CCED13F
:1018D0000EE0B96912986D1C884781461398761EF0
:1018E00044F4007405600F98401C002E0F9016DD24
:1018F000B9F1300FEDD0B9F1780F02D0B9F1580F2E
:101900000DD10F9801280AD13B46CDE90054DDE9FD
:101910001212001F029605F0FBF8C11CA7D1109906
:1019200089453ED144F0800406E01399681CAAF171
:10193000010A44F400740860B9696D1C1298761E9F
:10194000884730288146F0D02BE01099894505D191
:10195000200603D4761E44F0800418E0484604F0C4
:10196000CCF808B3761E0DF123018B4544F40074C6
:1019700008D2A9F130000BF8010B200607D5AAF117
:10198000010003E0200602D40AF101008246A0050E
:1019900002D51399681C0860B96912986D1C8847B4
:1019A0008146002ED1DC53E0002E51DDB9F1650FE8
:1019B00002D0B9F1450F4BD1A00549D5B9696D1CCD
:1019C0001298761E24F440748847002E81460CDD60
:1019D0002B2804D0B9F12D0F07D144F48074B969D4
:1019E00012986D1C8847761E8146E00501D52D2191
:1019F00000E02B2108F8011BCDF8008021E0761EC5
:101A00000DF13901884544F400740CD2A9F130007D
:101A100010F0FF0088F8000002D10099884509D92C
:101A200008F1010806E0E00501D51E4801E042F298
:101A30000F708246B96912986D1C884781461398C9
:101A40000560002E04DD484604F057F80028D6D182
:101A5000F96912988847FF2053468BF8000088F8F0
:101A6000000000200A900B9004AA0CA90AA8FFF716
:101A7000ADFDA00502D46FF00100F8E614F0240FCC
:101A800012D0E0071CD13868DDE90A12031D3B6063
:101A90000068C0E9001213E0F4550000E6550000AC
:101AA000AA540000F1D8FFFF0AA9684603F0ACFF72
:101AB000E00705D13868009A011D396000680260AE
:101AC0002846D4E64FF0013C50F8042B51F8043B73
:101AD0009A4221D1A2EB0C03934313EACC1317D102
:101AE00050F8042B51F8043B9A4215D1A2EB0C0399
:101AF000934313EACC130BD150F8042B51F8043B59
:101B00009A4209D1A2EB0C03934313EACC13DBD026
:101B10004FF00000704700BFD01A01BAB1FA81F14E
:101B200001F0180122FA01F0CB40C1F12001DBB233
:101B3000C0B2C01A2CFA01F3D11A914311EAC311B1
:101B4000E6D170477047000001491820ABBEFEE7A0
:101B5000260002002DE9FF4F1F464FF03C0987B0D9
:101B60004FF00042DDE9141001F10108DDF858A042
:101B700002EA405003900020059083460546044643
:101B80000490B969461E08988847AAF1010A029094
:101B9000BAF1000F3BDD02982E2815D0102100F07D
:101BA00016FA00282EDB4FF0010B0599014317D0E0
:101BB000B9F1000F0BDB4A46C11700F0F5F90543F8
:101BC0000C43A9F1040905E0012004900BE008B1E1
:101BD00045F0010501200590049820B9361D02E06A
:101BE000049800B1361FB969089808F101088847C0
:101BF000BBF1000FAAF1010A0290C9D00999C1F8FE
:101C00000080C5E70298702808D0502806D0F969EE
:101C100008988847BBF1000F14D04FE000200290D5
:101C20000120BBF1000F049009D0B969089808F1B0
:101C300001088847AAF10109B9F1000F07DCF96929
:101C4000089888476FF001000BB0BDE8F08F2B2893
:101C500004D02D280CD14FF0FF300490B9690898BA
:101C600008F101088847A9F10109B9F1000FE6DD83
:101C7000411CE4D00A2100F0AAF90028DFDB029918
:101C800008F1010801EB810100EB41000290B96904
:101C9000089888470A2100F09AF9099AA9F10109E0
:101CA000B9F1000FC2F8008001DD0028E7DAF96918
:101CB000089888470499029800FB016655EA0400D9
:101CC00004D004F04041090002D006E0039898E0F7
:101CD000A40044EA9574AD00B61E04F0004108006B
:101CE00002D16D196441761E159810F0240F03D0AF
:101CF0004FF00B095C4803E04FF028096FF07D00BE
:101D00008246564507DAAAEB06018944B9F1410F2C
:101D100001DD4FF0410901200021A9F1010200F08D
:101D200043F9024628400B462140084301D00121D7
:101D300000E00021501E029143F1FF312840214074
:101D4000084301D0012000E000200299834651EAB7
:101D50000B014FD0002108464FF00000039900F41A
:101D6000400039B100EB80004FF4400100EBD0702F
:101D700001EA60008015012802DD4FF0FF3000E02D
:101D800013D0401C36D0029860B3BBF1000F0CD1C9
:101D90004A460120002100F007F92840214008436D
:101DA00001D0012000E00020E0B101204A460021DE
:101DB00000F0FAF8034640190A4661412D1A8C4199
:101DC00011D3B9F1400F09DD159810F0240F02D09E
:101DD000AAF1340603E0AAF1170600E0761C0025FC
:101DE0004FF0004406E05B1E42F1FF3220EA03059B
:101DF00021EA0204CAF10100B04206DA1B49039845
:101E000008430190002000900EE0039AC4F3D32110
:101E1000E80A0A43164940EA44500A433146CDE9EC
:101E20000002684603F05EFE159810F0240F0BD0F8
:101E30001598C00715D13868DDE90012031D3B6015
:101E40000068C0E900120CE002A8694603F0DCFD5E
:101E50001598C00705D13868029A011D39600068DD
:101E600002604046F0E6000002FCFFFF0000F07F49
:101E70000000F03F2DE9FF4F92461D4685B04FF020
:101E80000041DDE9124BDDE914727F1E01EA4B507F
:101E9000414940F0FF4940EA0108002122F02000BA
:101EA0004928049102D04E2828D04CE03BA00126BE
:101EB00007C88DE80700A9690698641C88477F1E3B
:101EC000014606D41DF8060018B121F02001814218
:101ED0000BD0E96906988847032E34D0082E32D0FB
:101EE0006FF0010009B0BDE8F08F761C032E01D021
:101EF000082EE0D1601CCAF80000DCE7A96906984A
:101F0000641C88477F1E2AD420F02000412826D157
:101F1000A9690698641C88477F1E20D420F0200001
:101F20004E281CD1A9690698641C88477F1E48F476
:101F3000002849F48009CAF8004001D4282806D0B6
:101F4000E969069888475FEACB7012D022E0A96958
:101F50000698641C88477F1E01D4002803DAE969CB
:101F600006988847BCE72928F1D1641CCAF80040CC
:101F7000E9E71BF0240F07D028680499031D2B60A4
:101F80000068C0E9001805E02868021D2A600068A2
:101F9000C0F800902046A5E70000F07F494E464972
:101FA0004E49545900000000B2F120030AD5C2F195
:101FB000200301FA02F120FA03F300FA02F041EAE9
:101FC0000301704700FA03F14FF0000070473A2810
:101FD00000D2303820F02002412A01D3A2F137008C
:101FE000884201D34FF0FF3070475FEA400C08BFD2
:101FF00091F0000F4FEA8C234FEAC12243EA51517E
:102000004FEA1C5018BF00F5F0404FEA300018BFEF
:1020100041F000415FEA6C5C00F02980BCF1FF3FB9
:1020200008BF40F080407047130C06BF12044FF009
:10203000100C4FF0000C130E04BF12020CF1080C30
:10204000130F04BF12010CF1040C930F04BF920094
:102050000CF1020CD30F04BF52000CF1010C11461D
:102060004FF00002A0F11F00A0EB0C00704711F030
:10207000004F08BF704731F000413FF4D5AF0B0C63
:1020800006BF09044FF0100C4FF0000C0B0E04BFFC
:1020900009020CF1080C0B0F04BF09010CF1040C30
:1020A0008B0F04BF89000CF1020CCB0F04BF490059
:1020B0000CF1010CCCF12003A0EB0C0022FA03F38D
:1020C00002FA0CF241EA030100F10100704720F02E
:1020D0007F4C80EA030023F07F47ACEB070303F556
:1020E0007C5300F0004003F1FF032DE980494FEAE3
:1020F000154B09B44FEA144325EA0B4E24EA034872
:102100000FF2042606EB132749083E785FEA3202F5
:1021100003FB0667C7F5000707FB06F64FEA5437CF
:102120004FEAD64606F1020607FB066CCCF1005CCE
:102130004FEA1C472CEA074C07FB06F40CFB06F59C
:1021400004EB15464FEA961634BF00204FF00040CE
:102150004FEAD13706FB07FC4FEA1C4C0CFB0BF790
:10216000D21B03FB0CF761EB07010CFB0EF7B0EB86
:10217000074072EB17420CFB08F734BFA2EB074293
:10218000B2EB074261EB17414FEA0C444FEA91076B
:1021900006FB07FC4FEA1C4C0CFB0BF7B0EBC740EF
:1021A00072EB573203FB0CF734BFA2EBC742B2EB22
:1021B000C74261EB57310CFB0EF7B0EBC70072EB77
:1021C00057720CFB08F734BFA2EBC702B2EBC70291
:1021D00061EB5771039F4FEA816141EA921104EB71
:1021E000CC044FEAD1374FEA826206FB07FC42EA91
:1021F00090124FEA80604FEA1C4C0CFB0BF7D21B8D
:1022000003FB0CF761EB07010CFB0EF7B0EB07408B
:1022100072EB17420CFB08F734BFA2EB0742B2EB9C
:10222000074261EB17414FEA8C554FEA910704EBE7
:102230009C2406FB07FC4FEA1C4C0CFB0BF7B0EB95
:10224000C74072EB573203FB0CF734BFA2EBC74217
:10225000B2EBC74261EB57310CFB0EF7B0EBC70096
:1022600072EB57720CFB08F734BFA2EBC702B2EB5C
:10227000C70261EB577115EB4C254FEA816141EACA
:1022800092114FEA82624FEAD13742EA901206FB7E
:1022900007FC44F100044FEA80604FEA1C4C0CFB41
:1022A0000BF7D21B03FB0CF761EB07010CFB0EF7DE
:1022B000B0EB074072EB17420CFB08F734BFA2EB00
:1022C0000742B2EB074261EB174115EB1C154FEAD1
:1022D000813141EA92414FEA823242EA90424FEA2A
:1022E00080304FEA0C7644F1000448EA03434EEA9A
:1022F0000B484FF0000EB2EB080C71EB030724BF44
:10230000624639464EEB0E0E4FF0000B001852415C
:1023100049414BEB0B0BB2EB080C71EB03077BF164
:10232000000B24BF624639464EEB0E0E4FF0000BF9
:102330000018524149414BEB0B0BB2EB080C71EB0F
:1023400003077BF1000B24BF624639464EEB0E0EAD
:1023500051EA020718BF46F0010616EB0E7655F15A
:10236000000254F1000103D5BDE88901BDE80088F1
:10237000BDE88901BDE80048B619524141EB0101B1
:10238000A3F10103704780807F7E7D7C7B7A797822
:10239000777676757473727171706F6E6E6D6C6C2A
:1023A0006B6A6A69686867666665646463636261CC
:1023B0006160605F5F5E5E5D5D5C5C5B5B5A5A594D
:1023C00059585857575656555555545453535252B9
:1023D0005251515050504F4F4F4E4E4D4D4D4C4C11
:1023E0004C4B4B4B4A4A4A4949494848484747475A
:1023F0004746464645454544444444434343434297
:10240000424242414141000046EA0646A3F570536C
:102410004FEA164646EA42564FEAD22242EA415273
:1024200010B54FEAD121A3F1010300F02FF820F0FD
:10243000004000F1020C00F0004701EB0050114693
:10244000BCF5006F40EA070000D210BDBAF1000FE2
:102450000AD01CB503B44FF004004FF004014FF054
:1024600000000FBCBDE810404FF00001BBF1010FB0
:10247000B9BF04484FF0FF310348002140EA07008C
:1024800010BD00BFFFFFEF7F0000F07F002B9C46D8
:1024900030D477002BD01CB54FEA370703B44FF088
:1024A00010004FF01001BAF1000F06D0BCF1000F80
:1024B000DCBF40F0080040F008014FF000000FBC06
:1024C000BDE810400BF1010BBBF1010F08BF5FEA43
:1024D000170722BF12F1010211F101014FF0004173
:1024E00043F1000300F0004043EA00007047F9D3D5
:1024F0005708D0E746EA064613F1400F4FEA164662
:102500001FDD13F1200FDFBF16430A4600212033E1
:102510005B42BED0C3F1200746EA064602FA07F73F
:102520004FEA164646EA0706C3F1200722FA03F2ED
:1025300001FA07F721FA03F14FF0000342EA07021C
:10254000A7E746EA020646EA06464FEA164646EA84
:102550000106BCBF46EA0646360C4FF000034FF0BA
:1025600000024FF0000194E72DE9804C9A46934613
:1025700070B491E8380007C831EA400C48BF34EA2B
:10258000430C03D5FFF7A3FDFFF780FFF0BCBDE8C8
:10259000008C2DE9804C9A46934670B491E838003F
:1025A00007C831EA400C48BF34EA430C03D5FFF7B3
:1025B0008EFDFFF729FFF0BCBDE8008C2DE9804CB3
:1025C0009A46934670B491E8380007C810F0804FDF
:1025D00008BF13F0804F03D100F01AF8FFF756FF41
:1025E000F0BCBDE8008C2DE9804C9A46934670B44F
:1025F00091E8380007C810F0804F08BF13F0804FF3
:1026000003D100F005F8FFF7FFFEF0BCBDE8008C39
:1026100020F07F4780EA030023F07F4C07EB0C0398
:10262000A3F57C5300F00040A3F1FE0392F0000FED
:1026300000F0B38095F0000F00F077802DE901499C
:102640004FEA11404FEA144621EA004800FB06FC1D
:1026500024EA064708FB06F607FB08F800FB07F725
:1026600018EB06484CEB164C4FEA124B18EB074898
:102670004FEA15464CEB174022EA0B4E0BFB06FCCB
:1026800025EA06470EFB06F607FB0EFE0BFB07F7D7
:102690001EEB064E4CEB164C4FF000061EEB074EA1
:1026A0004CEB174B18EB0B0840F1000018EB0E0B2E
:1026B00058EB000840F100008F1A4FF000013CBFBA
:1026C000C943661B14BFB5EB040C00213CBFC943D2
:1026D000F61B4FEA17444EEA8E0E27EA04454FEAEE
:1026E0001C4704FB07622CEA074C05FB07F70CFBB1
:1026F00005F604FB0CFC16EB074642EB174216EB03
:102700000C4642EB1C421BEB060658EB0202414111
:1027100046EA9E0601D5BDE80189B619524141EB52
:102720000101A3F10103BDE801894FEA14454FEA15
:10273000114724EA054621EA074C05FB07F406FB8E
:1027400007F70CFB06F105FB0CFC11EB074144EB12
:1027500017444FEA124711EB0C4144EB1C4422EAA8
:10276000074C05FB07F206FB07F70CFB06F605FB1B
:102770000CFC16EB074642EB174216EB0C4642EBFD
:102780001C456A1854F1000148BF7047B619524100
:1027900041EB0101A3F10103704795F0000F37D021
:1027A0004FEA11424FEA144721EA024624EA074C55
:1027B00002FB07F106FB07F70CFB06F402FB0CFC1F
:1027C00014EB074441EB17414FEA154714EB0C4457
:1027D00041EB1C4125EA074C02FB07F506FB07F716
:1027E0000CFB06F602FB0CFC16EB074645EB174507
:1027F00016EB0C4645EB1C42121951F1000148BF83
:102800007047B619524141EB0101A3F10103704732
:102810004FEA14454FEA114724EA054621EA074CDE
:1028200005FB07F106FB07F70CFB06F24FF000066D
:1028300005FB0CFC12EB074241EB174112EB0C427B
:1028400051EB1C4148BF7047921841EB0101A3F1C5
:1028500001037047FEE700002DE9F041074601F053
:1028600046FB7148A0F18005D5F8051040F87F1FA0
:10287000D5F809104160B5F80D100181F86B0068BA
:102880004068C0F1FF00C6B268793A280AD1A87939
:102890006649312802D0302802D003E0012000E050
:1028A000002008802878624C70285ED073286ED192
:1028B000E878702810D008DC61282FD064281BD05D
:1028C000692811D06F2850D11EE0732844D0742895
:1028D00038D0762849D12BE054495348091D7F3020
:1028E00003F0F0FA206040E050494F48091D7F3066
:1028F00003F0E8FA606038E04C494B48091D7F302E
:1029000003F0E0FAA06030E048494748091D7F30F5
:1029100003F0D8FA03F084FEE06026E04349424821
:10292000091D7F3003F0CEFA03F07AFE20611CE02F
:102930003E493D48091D7F3003F0C4FA03F070FEA4
:10294000606112E039493848091D7F3003F0BAFA56
:1029500003F066FEA06108E034493348091D7F306A
:1029600003F0B0FA03F05CFEE061E8786F2827D04E
:1029700006DC61282ED064281AD0692847D10FE0E0
:10298000702805D073282FD0762840D136E03EE05D
:1029900026492548091D7F3003F094FA206236E06D
:1029A00022492148091D7F3003F08CFA60622EE035
:1029B0001E491D48091D7F3003F084FAA06226E0FD
:1029C0001A491948091D7F3003F07CFA03F028FEEC
:1029D000E0621CE015491448091D7F3003F072FACB
:1029E00003F01EFE206312E010490F48091D7F30DE
:1029F00003F068FA03F014FE606308E00B490A482C
:102A0000091D7F3003F05EFA03F00AFEA06306485A
:102A100031468038FDF7E3FC3846BDE8F041024915
:102A2000FF22803901F03EBDAC0400201C000020D4
:102A30002C0A0020084A016882B0914209D10A6834
:102A4000D243D20605D40A684968009102B0FFF764
:102A500003BF02B07047000000440040014800F08E
:102A600081BC0000E8030020014800F07BBC0000AE
:102A7000A4030020014800F075BC0000D80200202B
:102A8000014800F06FBC000094020020014800F0F3
:102A900069BC00001C030020014800F063BC00007A
:102AA0006003002030B590F840500124AC40C56B65
:102AB0006C60046863604368102B036803D09960FE
:102AC0000068C26030BD9A600068C16030BD704768
:102AD0003C220149FDF751BC2C0A002072B6FEE7EA
:102AE00090F82020012A07D0022A05D0416A41F43B
:102AF0008021416201207047006842690A434261B7
:102B000000207047F0B590F820500468A468012DAB
:102B100005D0022D03D0416A41F4802157E014F022
:102B2000406F01D1E5004FD5C4F301640125A540F4
:102B30001D608B684FF4C0759BB1CE6833434E68FF
:102B400043EAC603066805EB0417F3514FF4C2735A
:102B5000076803EB04130E69FE50097D012905D0B7
:102B600009E00E88CB6843EA4653EBE70168CE588C
:102B700046F48076CE501179D379567941EA0361D3
:102B800093791B0443EA062319434FF4C67603687E
:102B900006EB041699511178D37841EA03619378D2
:102BA00052781B0443EA022211434FF4C4730268B3
:102BB00003EB0413D150006805EB0411425842F0B6
:102BC000010242500020F0BD416A41F4001141620F
:102BD0000120F0BD10B590F820300268012B07D01D
:102BE000022B05D0416A41F480214162012010BDD1
:102BF000D2F8000240F00100C2F80002087D00F0A7
:102C00001F0301209840D2F81C328343C2F81C32C3
:102C1000CB69B3B9D2F80C328343C2F80C328C8939
:102C20004B6864F31F434C6902EBC404C4F84032A0
:102C30000C890B6864F31F434C6902EBC404C4F8AD
:102C40004432CB69012B16D1D2F80C320343C2F8BF
:102C50000C320C884B6864F31F434C6902EBC404CC
:102C6000C4F840320C89CB6864F31F434C6902EB13
:102C7000C404C4F844328B69002BD2F804320ED05D
:102C80000343C2F804320B69002BD2F8143208D087
:102C90000343C2F81432096A012904D008E08343CF
:102CA000EFE78343F5E7D2F81C120143C2F81C1288
:102CB000D2F8000220F00100C2F80002002010BD8E
:102CC000704770B590F82040012C05D0022C03D03D
:102CD000416A41F4802128E0046809B32469A4070B
:102CE00020D04FF4D874056804EB01142D5915F069
:102CF0000405956005682D591AD0ED0855600568E2
:102D00002C5904F00204D4604FF4DA74056804EB23
:102D100001142E5906F00F06082E0CD308250DE0DD
:102D2000E468DCE7416A41F400114162012070BDB2
:102D30006D0D1560E3E72D5905F00F051561056868
:102D40002D59C5F30725956105682C59240C54614C
:102D50004FF4DC72046802EB0112A4581C70046882
:102D6000A458240A5C700468A458240C9C7004685D
:102D7000A258120EDA704FF4DE72046802EB0112F0
:102D8000A4581C710468A458240A5C710468A458EF
:102D9000240C9C710468A258120EDA71006829B1E3
:102DA000016941F020010161002070BDC16841F05E
:102DB0002001C160F8E72DE9F05F054600680024B6
:102DC0004669D0F804908768D0F80CB0D0F810A00D
:102DD000D0F81880F10748D0F90714D0012181609C
:102DE000B80703D5284600F0FCF90CE0780702D5B7
:102DF0004FF4006407E0380702D54FF4805402E036
:102E0000284600F0EDF9F80516D529684FF48070D2
:102E10008860B80503D5284600F0E5F90CE0780590
:102E200002D544F4005407E0380502D544F4804448
:102E300002E0284600F0D6F9F80316D529684FF4C9
:102E400080308860B80303D5284600F0CEF90CE046
:102E5000780302D544F4004407E0380302D544F473
:102E6000803402E0284600F0BFF9300707D55FEA5A
:102E7000CB6004D52968102044F40074C860700742
:102E80004FF0080707D55FEA0B7004D52868C760C4
:102E9000284600F059F9B00706D52868C0688007B1
:102EA00002D0284600F052F9700607D55FEACA60E2
:102EB00004D52968102044F480640861B00607D561
:102EC0005FEA0A7004D528680761284600F05AF9BD
:102ED000F00606D528680069800702D0284600F071
:102EE00052F9B00308D55FEAC96005D529681020FA
:102EF0004860284600F048F9F00307D55FEA0970FA
:102F000004D528684760284600F070F9300446D59B
:102F10005FEA497040D5F00504D55FEAC87001D07A
:102F200044F00104B00504D55FEA887001D544F08F
:102F30000204700504D55FEA487001D544F004042A
:102F4000300529D518F0700F26D008F07000402801
:102F500015D006DC102809D020280AD0302816D138
:102F60000AE050280ED0602811D10EE044F0080489
:102F70000DE044F010040AE044F0200407E044F0BF
:102F8000400404E044F0800401E044F480742868C4
:102F9000816921F070018161296804204860002C5A
:102FA00005D0686A204368622846FFF789FEBDE8BD
:102FB000F09F70B5040003D094F8200010B104E035
:102FC000012070BD204600F081F82068016841F0C2
:102FD0000101016000F06AFC0546052604E000F0EE
:102FE00065FC401B0A2811D820684068C007F6D04D
:102FF0002068016821F00201016000F057FC0546DD
:103000000BE000F053FC401B0A2806D9606A40F42C
:103010000030606284F82060D2E720684068800752
:10302000EFD4207E0128206801683DD021F0800186
:103030000160607E01282068016838D021F04001DD
:103040000160A07E01282068016833D021F02001B2
:103050000160E07E0128206801682ED041F0100157
:103060000160207F01282068016829D021F0080133
:103070000160607F01282068016824D021F00401EC
:103080000160D4E902010843D4E904121143084362
:103090006168491E08432168C86100206062012000
:1030A00084F82000002070BD41F08001C0E741F0AD
:1030B0004001C5E741F02001CAE721F01001CFE748
:1030C00041F00801D4E741F00401D9E710B586B01A
:1030D00000210091019102910391006817498842F3
:1030E0002AD11748C16941F00071C161C16901F07D
:1030F00000710491816941F0040181618069114C82
:1031000000F0040004904FF40060009069462046EF
:1031100000F0D4FAA114009102210191032103913E
:103120006946204600F0CAFA00221146142000F039
:1031300029FC142000F018FC06B010BD006400400B
:1031400000100240000801407047000010B50B4B12
:103150000B4A0021FFF7B5FD00280DD10848816812
:10316000042907D002680648BDE810400349E0384A
:1031700001F056BE4268F6E710BD000001000020D5
:103180007801002070477047704770B5044690F88A
:103190002000012804D0606A40F40020606217E03B
:1031A000022084F820002068016821F001010160FC
:1031B00000F07CFB05460DE000F078FB401B0A2880
:1031C00008D9606A40F400306062052084F820006D
:1031D000012070BD20684068C007EDD1606270BDFD
:1031E000704770477047704770477047704710B519
:1031F00090F821100022022905D00421816380F873
:103200002020012010BD01680B6823F00E030B6025
:1032100001680B6823F001030B6090F84030012433
:1032200004FA03F1C36B596080F8214080F8202034
:10323000104610BD2DE9F05F90F8211000240229FE
:1032400003D004218163012485E001680A6822F02B
:103250000E020A6001680A6822F001020A603F4E0D
:103260003E4FB215DFF8F4C0DFF8F090DFF8ECA0C5
:10327000DFF8E8B0DFF8E4E00168783F13011502F9
:10328000ACF1640CA9F15009AAF13C0AABF1280B8E
:10329000AEF1140E4FF48018B14227D9B9420ED0C6
:1032A000614512D049451DD0514518D0594518D017
:1032B000714501D1424615E0294EB14201D10122AA
:1032C00010E0274E1436B14201D110220AE0244EFC
:1032D0002836B14206D0224A3C32914201D11A46E8
:1032E00000E02A461E49091F0A602BE0B94213D0AC
:1032F000614517D0494522D051451DD059451DD0B3
:10330000714501D142461AE0B14202D14FF08072BC
:1033100015E0134EB14201D1012210E0104E1436D7
:10332000B14201D110220AE00D4E2836B14206D03A
:103330000B4A3C32914201D11A4600E02A46074925
:1033400080394A60012180F82110002180F8201086
:10335000416B01B188472046BDE8F09F80000240E4
:10336000080402402DE9F05FC16B0B6801680A6830
:10337000046C4FF0040808FA04F8844D844E854F1D
:10338000DFF814C2DFF81492DFF814A2DFF814B2E9
:10339000DFF814E218EA030F65D05FEA427862D5DD
:1033A0000A68920603D40A6822F004020A60DFF871
:1033B000F0814FF48062016808F1140813011402CF
:1033C000414524D9A9420DD0B1420FD0B9421AD0FB
:1033D000614515D0494515D0514501D1120312E080
:1033E000594501D104220EE0714501D140220AE085
:1033F0006D4D1435A94206D06B4A2832914201D155
:103400001A4600E022466749091F0A6029E0A942DE
:1034100013D0B14215D0B94220D061451BD04945E7
:103420001BD0514502D14FF4800217E0414502D133
:103430004FF0806212E0594501D104220EE071453F
:1034400001D140220AE0584D1435A94206D0564A0F
:103450002832914201D11A4600E022464B490839F0
:103460004A60C16A71E04FF0020808FA04F818EAED
:10347000030F70D05FEA82786DD50A68920606D491
:103480000A6822F00A020A60012180F82110DFF8A0
:1034900010814FF40072016808F11408130114023E
:1034A000414524D9A9420DD0B1420FD0B9421AD01A
:1034B000614515D0494515D0514501D1120312E09F
:1034C000594501D102220EE0714501D120220AE0C6
:1034D000354D1435A94206D0334A2832914201D1E4
:1034E0001A4600E022462F49091F0A6029E0A94236
:1034F00013D0B14215D0B94220D061451BD0494507
:103500001BD0514502D14FF4001217E0414502D1C2
:103510004FF0007212E0594501D102220EE07145D0
:1035200001D120220AE0204D1435A94206D01E4ABE
:103530002832914201D11A4600E022461349083947
:103540004A60002180F82010816A00291CD0BDE863
:10355000F05F0847FFE70825A5401D4214D0120779
:1035600012D50A6822F00E020A6090F84020C36B60
:10357000012101FA02F25A60816380F821100021D2
:1035800080F82010016BE0E7BDE8F09F08000240E2
:103590001C0002403000024044000240580002403B
:1035A0006C000240080402401C04024030B560B1C7
:1035B0001A4B01681422994209D2194B0B44B3FBF0
:1035C000F2F292000264174A0AE0012030BD134B68
:1035D0005B420B44B3FBF2F2920002640F4A083ADA
:1035E000C263022280F821200A6843F6F0739A43EE
:1035F000F0E901342343D0E902452C432343046915
:103600002343446923438469234313430B6000210C
:103610004163012242770177084630BD0804024029
:10362000F8FFFDBF0000024070B5044690F820008E
:10363000002501280CD0012084F8200094F8216096
:103640000020012E06D084F820000225284670BDF7
:10365000022070BD022684F82160A06320680668FD
:1036600026F0010606602046FFF71CFAE06A0028F3
:103670002068016802D041F00E0106E021F004014B
:1036800001602068016841F00A010160206801685A
:1036900041F001010160D9E770B5044600F006F978
:1036A0000546601C02D004480078044400F0FEF88F
:1036B000401BA042FAD370BD100000202DE9F84F46
:1036C000DFF8C0910024A9F1040B23464FF00F0846
:1036D00009F1040AABF1040ECCE00127A7403A40FF
:1036E000BA4272D1DFF8A0C14D68A5EB0C06654562
:1036F0002BD00DDC032D34D005DC35B3012D19D0D2
:10370000022D2FD11BE0112D16D0122D2AD119E038
:10371000B6F5881F19D006DCB6F5803F15D0B6F592
:10372000801F1FD111E0B6F5001F0ED0B6F5041FA3
:1037300018D10AE0CB6815E0CB681B1D12E0CB68FE
:1037400008330FE0CB680C330CE08B682BB1012BF6
:103750004FF0080303D0476104E0042302E007614F
:1037600000E00023FF2A01D8064601E000F104062C
:103770004FEA840501D9A5F12005376808FA05FC50
:1037800027EA0C0703FA05F547EA050737604D6895
:10379000ED006ED53D4DAE6946F00106AE61AD69F6
:1037A00024F0030605F001050095394D7719BE6830
:1037B000A5072D0F08FA05FC26EA0C06DFF8D4C091
:1037C000604503D14FF0000C25E052E0DFF8C8C09F
:1037D000604502D14FF0010C1DE0DFF8C0C060452C
:1037E00002D14FF0020C16E0DFF8B4C0604502D100
:1037F0004FF0030C0FE0DFF8ACC0604502D14FF092
:10380000040C08E0DFF8A0C0604502D14FF0050CC1
:1038100001E04FF0060C0CFA05FC4CEA060CC7F868
:1038200008C04D68D9F80060ED024D4601D5164339
:1038300000E096432E604D68DAF80060AD02554610
:1038400001D5164300E096432E604D68DBF800601A
:10385000AD035D4601D5164300E096432E604D68EA
:10386000DEF80060ED03754601D5164300E096438F
:103870002E60641C0A6832FA04F57FF42EAFBDE8AE
:10388000F88F0000080401400000111000100240F1
:103890000000014000080140000C01400010014000
:1038A0000014014000180140001C014001488068DC
:1038B000704700001000002002488168027811441F
:1038C0008160704710000020074810B5016841F082
:1038D00010010160032000F075F80F2000F006F8D9
:1038E00000F024F8002010BD0020024070B50D4DFE
:1038F00004464FF47A712878B1FBF0F00A49096860
:10390000B1FBF0F000F0DEFA48B9102C07D200222B
:103910002146501E00F036F800206C6070BD01207A
:1039200070BD0000100000200C0000200C4808B5FD
:10393000816941F001018161816901F0010100911A
:10394000C16941F08051C161C069064900F08050F1
:103950000090486820F0E06040F00070486008BDCA
:103960000010024000000140002809DB00F01F02A7
:10397000012191404009800000F1E020C0F80011D1
:1039800070470000F0B40E4B1B68C3F30223C3F171
:103990000704042C00D904241D1D072D01D2002387
:1039A00000E0DB1E012606FA04F56D1E0D409D4069
:1039B0009E40761E164045EA0601F0BC02F004B8AF
:1039C0000CED00E0064A00F0070110684FF6FF0317
:1039D000184040EA01200349084310607047000086
:1039E0000CED00E00000FA052DE9F0470D4604005B
:1039F00067D0DFF81881D8F8000000F00700A8426F
:103A00000CD2D8F8001021F007012943C8F80010A3
:103A1000D8F8000000F00700A84252D120683C4EC0
:103A2000810712D5400703D5706840F4E0607060EC
:103A30002078000703D5706840F4605070607068AB
:103A4000A16820F0F000084370602078C00727D0FC
:103A50006068012810D03168022810D08907002939
:103A60002FDA716821F0030101437160FFF71EFF37
:103A7000074641F288390CE031688903EFE7890194
:103A8000EDE7FFF713FFC11B494502D90320BDE84D
:103A9000F0877068616800F00C00B0EB810FF0D126
:103AA000D8F80010404601F00701A9420BD901687F
:103AB00021F0070129430160006800F00700A842D7
:103AC00001D00120E3E72078400705D57068E16860
:103AD00020F4E060084370602078000706D5706825
:103AE000216920F4605040EAC100706000F038F8AD
:103AF0007168084AC1F30311515CC8400649086067
:103B000006480068FFF7F2FE0020C0E700200240F0
:103B100000100240486B00080C0000201400002038
:103B20000448054900684968044AC1F30221515C10
:103B3000C84070470C00002000100240586B00087D
:103B40000448054900684968044AC1F3C221515C30
:103B5000C84070470C00002000100240586B00085D
:103B60000E4B59680E4801F00C02042A11D0082AA5
:103B70000FD10C48C1F38342C903805C0AD5596850
:103B8000084AC1F34041921E515C054A5043B0FBC4
:103B9000F1F07047044948437047000000100240AC
:103BA00000127A00626B000800093D002DE9F84F11
:103BB00004006FD02078BE4DC00747D06868C0F3BE
:103BC0008100012807D06868C0F38100022809D16C
:103BD0006868C00306D52868800337D56068002868
:103BE000E7D033E06068B0F5803F0BD010B1B0F59E
:103BF000A02F11D0286820F480302860286820F495
:103C0000802002E0286840F480302860606888B135
:103C1000FFF74CFE064609E0286840F48020286043
:103C2000F0E7FFF743FE801B642873D82868800301
:103C3000F7D50BE0FFF73AFE064604E0FFF736FE45
:103C4000801B6428F1D828688003F7D42078DFF837
:103C5000648280074FF0010A4FF0000939D5686887
:103C600010F00C0F07D06868C0F38100022809D15A
:103C70006868C00306D42868800714D52069012825
:103C800008D110E02069B0B1C8F800A0FFF70EFE1F
:103C9000064605E007E1FFF709FE801B0228C4D8AD
:103CA00028688007F7D52868616920F0F80040EAA5
:103CB000C10028600DE0C8F80090FFF7F7FD064648
:103CC00004E0FFF7F3FD801B022823D82868800753
:103CD000F7D4207800072CD57748A169D9B1C0F86E
:103CE00000A0FFF7E3FD064604E0FFF7DFFD801BC1
:103CF00002280FD8686A8007F7D570484FF4FA5148
:103D00000068B0FBF1F0009000BF0098411E0091E8
:103D1000FAD20EE07CE0C0F80090FFF7C7FD06463F
:103D200004E0FFF7C3FD801B022871D8686A800792
:103D3000F7D4207840075BD5E8690027C00008D495
:103D4000E86940F08050E861E869012700F08050A0
:103D500000905B480168C90511D40168834641F4AD
:103D600080710160FFF7A2FD064604E0FFF79EFDAB
:103D7000801B64284CD8DBF80000C005F6D5E0684D
:103D800001280AD008B1052813D0286A20F00100C4
:103D90002862286A20F0040002E0286A40F001004E
:103DA0002862E06841F2883B88B1FFF77FFD064654
:103DB00009E0286A40F004002862EEE7FFF776FD8C
:103DC000811B59455BD8286A8007F7D50BE0FFF7C0
:103DD0006DFD064604E0FFF769FD811B59454ED88D
:103DE000286A8007F7D41FB1E86920F08050E861A5
:103DF000E069A8B36968C1F38101022946D00228AD
:103E0000484606D0C8F86000FFF750FD044639E088
:103E100035E04746C8F86000FFF748FD064604E075
:103E2000FFF744FD801B022829D828688001F7D4B9
:103E3000206AB0F5803F05D16868A16820F40030A1
:103E400008436860D4E908010843696821F47411E3
:103E500008436860C7F860A0FFF728FD044605E046
:103E600023E0FFF723FD001B022808D82868800103
:103E7000F7D51AE0FFF71AFD001B022802D903202C
:103E8000BDE8F88F28688001F4D40EE00128F7D04F
:103E90006868226A00F48031914204D1616A00F4BA
:103EA0007010884201D00120EAE70020E8E7000016
:103EB0000010024000004242800442420C000020F8
:103EC0000070004010B5401EB0F1807F01D301208A
:103ED00010BD4FF0E02460610F21601701F074FD08
:103EE0000020A06107202061002010BD704710B5A0
:103EF00004460068406994F84110C0F3C0102129BD
:103F000011D180B12068143050E8001F21F08001E9
:103F100040E80012002AF5D1A06B08B1FFF767F95D
:103F2000204600F031FD2068406994F84210C0F34B
:103F30008010222911D180B12068143050E8001F70
:103F400021F0400140E80012002AF5D1E06B08B1F1
:103F5000FFF74DF9204600F0F0FC002010BD70473F
:103F6000F8B5016804460868CA684B6910F00F0F7D
:103F70004FF0000559D003F0010602F49077374363
:103F800065D0C10705D0D10503D5616C41F00101B1
:103F90006164410705D5D90703D0616C41F0020186
:103FA0006164810705D5D90703D0616C41F0040134
:103FB0006164010707D502F02001314303D0616C31
:103FC00041F008016164616C00293AD0800604D593
:103FD000900602D5204600F0E5FC20684069616C3F
:103FE000C0F38010090700D460B3204600F0A5FCA0
:103FF00020684069400621D52068143050E8001F31
:1040000021F0400140E80012002AF5D1E06BA8B190
:104010006D494163E06BFFF70DF9002811D0E06BAB
:10402000416B01B0BDE8F040084783060FD5930609
:104030000DD52046BDE8F84000F0B4BC2046FFF79F
:104040008EFFF8BD2046FFF78AFF6564F8BD266B3A
:104050002023012E7CD1C6067AD5D60678D50868ED
:104060004868009048694FF00206400640D5E16B71
:10407000086840680004000CE8D0A28D8242E5D9AF
:10408000E085886920282DD020680C3050E8001F7A
:1040900021F4807140E80012002AF5D12068143024
:1040A00050E8001F21F0010140E80012002AF5D17C
:1040B0002068143050E8001F21F0400140E8001251
:1040C000002AF5D184F84230256320680C3050E88E
:1040D000001F21F0100140E80012002AF5D1E06B2A
:1040E000FFF785F86663A08DE18D401A81B22AE062
:1040F000A08DE18D401A81B2E08D0028A6D0002964
:10410000A4D020680C3050E8002F22F4907240E8D0
:104110000027002FF5D12068143050E8002F22F03E
:10412000010240E80027002FF5D184F842302563D2
:1041300020680C3050E8002F22F0100240E80023E5
:10414000002BF5D166632046FFF7D0FEF8BDFFE7F0
:1041500005062BD5150629D594F841002128F5D15F
:10416000A068B0F5805F01D12069B0B1206A411C20
:104170002162216800784860E08C401E0004000C39
:10418000E084E3D12068C16821F08001C16020682B
:10419000C16841F04001C160D8E7206A0088C0F3DF
:1041A00008004860206A801C2062E5E74006CDD503
:1041B0005006CBD5CA68204622F04002CA6084F877
:1041C000413000F0BDF9C1E7F147000870B50400C7
:1041D00004D094F84100002510B106E0012070BD24
:1041E00084F84050204600F023F8242084F8410051
:1041F0002068C16821F40051C160204600F034FC01
:104200002068016921F4904101612068416921F031
:104210002A0141612068C16841F40051C1606564B0
:10422000202084F8410084F842006563002070BDBE
:104230002DE9F04786B0002500950195029503957C
:104240000446DFF8388201688D4802228D4B202712
:1042500080264FF0030C4FF4806A4FF0100941455F
:1042600052D1816941F480418161816901F48041C9
:104270000491816941F0040181618069694600F01F
:10428000040004901002CDE900029846CDF80CC05D
:104290001846FFF713FACDE900A569464046029596
:1042A000FFF70CFADFF8E48177494046C0E90015D2
:1042B000C0E90256C8F81050C8E90557C8F81C50A4
:1042C000FFF774F908B1FEF709FC704FC4F83C80A1
:1042D0004437C8F82440C7E902563D616A487D6109
:1042E000BD611438FD61C7E900093846FFF75EF982
:1042F00008B1FEF7F3FBA7630022114625207C627C
:10430000FFF740FB252059E0DFF8848141455AD171
:10431000C16941F40031C161C16901F40031049106
:10432000816941F0040181618069694600F00400FF
:1043300004900420CDE900029846CDF80CC0184640
:10434000FFF7BCF90820CDE9000569464046029513
:10435000FFF7B4F9DFF834814B4908F1880840468B
:104360001431C0E90015C0E90256C8F81050C8E978
:104370000557C8F81C50FFF719F908B1FEF7AEFB56
:10438000424FC4F83C80CC37C8F82440C7E90256F5
:104390003D613D487D61BD612830FD61C7E900098F
:1043A0003846FFF703F908B1FEF798FBA763002230
:1043B000114626207C62FFF7E5FA2620FFF7D4FAA3
:1043C00006B0BDE8F087334B9942F9D1C16941F499
:1043D0008021C161C16901F480210491816941F0AA
:1043E000100181618069DFF8B08000F01000CDE934
:1043F00003C0CDE900A269464046FFF75FF94FF4DC
:104400000060CDE90005694640460295FFF756F980
:104410002249486820F0300040F0E06040F0100091
:104420004860DFF87C80184940462839C0E900150B
:10443000C0E90256C8F81050C8E90557C8F81C5022
:10444000FFF7B4F808B1FEF749FB154FC4F83C80FC
:104450004437C8F82440C7E902563D610A487D61E7
:10446000BD613C38FD61C7E900093846FFF79EF899
:1044700008B1FEF733FBA7637C62A1E70038014077
:104480000010024000080140580002409402002041
:10449000004400400048004000100140000001407E
:1044A000A403002090F84230202B01D00220704756
:1044B00021B11AB10023036300F032BB0120704721
:1044C0007047704737B5044690F84100202801D066
:1044D00002203EBD019951B34AB32162A284E28415
:1044E00000206064212384F84130A56B114BAB623E
:1044F000A56B114BEB62A56B104B2B63A36B586341
:1045000020681346A56B021D2846FFF78DF8216829
:104510006FF0400008602068143050E8001F41F040
:10452000800140E80012002AF5D100203EBD0120A4
:104530003EBD0000EF48000831490008014800086E
:1045400070477047FEE7000010B5FF220449054898
:10455000FFF7A8FF0448002141600170417010BDC1
:10456000680B00204C020020280000202DE9F041BB
:104570000D4800684068FF26C0F1FF00B0FBF6F16F
:104580000A4C06FB11050A4F606809E0385C00F030
:10459000FFF86068401CB0FBF6F106FB110060609C
:1045A000A842F3D1BDE8F081A40300202800002038
:1045B000680B002001460D4810B590F841002028F6
:1045C00001D0022010BD0A48AA233522372400F862
:1045D000013BFBF78DFE0649BB20224681F83600E1
:1045E000BDE810400148FFF76DBF00004C020020FD
:1045F000680A00200F4810B50D4901600321416091
:1046000000214FF4A0228160C0E903124FF4800220
:104610004261017641768176C17601774177FEF776
:10462000C8FC002803D0BDE81040FEF757BA10BD03
:1046300000640040940100201D4808B5416941F024
:10464000010141614069002200F001000090114623
:104650000C20FFF797F90C20FFF786F9002211468E
:104660000D20FFF78FF90D20FFF77EF9002211468C
:104670000E20FFF787F90E20FFF776F9002211468A
:104680000F20FFF77FF90F20FFF76EF90022114688
:104690001020FFF777F91020FFF766F90022114686
:1046A0001120FFF76FF9BDE808401120FFF75CB952
:1046B00000100240094808B5816941F00401816198
:1046C000816901F004010091816941F0100181616B
:1046D000806900F01000009008BD0000001002404A
:1046E0000C4810B50A4901604FF4E13141600021E6
:1046F00081600C22C160C0E904128161C161FFF7D1
:1047000065FD002803D0BDE81040FEF7E7B910BDF5
:1047100000380140BC0100200C4810B50A49016076
:104720004FF4E1314160002181600C22C160C0E999
:1047300004128161C161FFF749FD002803D0BDE883
:104740001040FEF7CBB910BD004400400402002029
:104750000C4810B50A4901604FF4E1314160002175
:1047600081600C22C160C0E904128161C161FFF760
:104770002DFD002803D0BDE81040FEF7AFB910BDF5
:10478000004800404C020020FEE7FEE770470000B2
:1047900070B5134C00250126217831B1012909D0CB
:1047A000022906D1BB2811D017E0AA2801D1267012
:1047B000A56070BDA168352905D20A4A5054491C2C
:1047C000A1603529F5D30220207070BD054935223E
:1047D00001F13500FBF78CFD6670257070BD00009F
:1047E00028000020670C00207047FFF765B870476D
:1047F00010B5406A0021C185C184FFF7B0FB10BD30
:1048000070B5446A2068406994F84110C0F3C01044
:104810000025212904D118B1E584204600F0B4F820
:104820002068406994F84210C0F38010222904D116
:1048300018B1E585204600F080F8606C40F010006B
:1048400060642046FFF78BFB70BD10B50146406ADF
:10485000096809684FF0000389062ED4C3850168F2
:104860000C3151E8002F22F4807241E80024002C22
:10487000F5D10168143151E8002F22F0010241E81E
:104880000024002CF5D10168143151E8002F22F0EA
:10489000400241E80024002CF5D1202180F842108C
:1048A000016B012909D101680C3151E8002F22F078
:1048B000100241E80024002CF5D14363016B01296B
:1048C00002D0FFF7FDFD10BD818DFFF70FFB10BD7E
:1048D00010B5406A01214163016B012902D0FFF745
:1048E000F0FD10BD818D4908FFF700FB10BD10B52C
:1048F0000146406A09680968890616D40021C18406
:104900000168143151E8002F22F0800241E80023B1
:10491000002BF5D101680C3151E8002F42F0400224
:1049200041E80023002BF5D110BDFFF709FE10BDB3
:1049300010B5406AFFF705FE10BD01680C3151E863
:10494000002F22F4907241E80023002BF5D101687A
:10495000143151E8002F22F0010241E80023002B1E
:10496000F5D1016B012909D101680C3151E8002F03
:1049700022F0100241E80023002BF5D1202180F81D
:10498000421000210163704701680C3151E8002F8B
:1049900022F0C00241E80023002BF5D1202180F84D
:1049A0004110704708B590F84210222901D002202A
:1049B00008BD81684FF48053994201D1026922B148
:1049C000826A99421BD049B10AE00268816A526842
:1049D000C2F308020A80816A891C08E0016971B18A
:1049E0000168496801F07F011170816A491C816288
:1049F000C18D491E0904090CC18503D01BE0016863
:104A00004968F1E70168CA6822F02002CA600168BB
:104A1000CA6822F48072CA6001684A6922F0010201
:104A20004A61202180F8421000214163026B012A73
:104A300003D0FFF745FD002008BD016301680C317C
:104A400051E8002F22F0100241E80023002BF5D19D
:104A500001680A68D20602D50A6849680091818D0A
:104A6000FFF744FAE7E7000070B504460068016903
:104A7000E26821F4405111430161A16820690143BA
:104A8000606901432068C26841F20C639A430A439B
:104A9000C26020684169A26921F4407111434161FB
:104AA0001E492068884202D1FFF74AF801E0FFF76B
:104AB00037F800EBC00101EB001160686422800050
:104AC000B1FBF0F3B3FBF2F36FF018067343B1FBE5
:104AD000F0F5B1FBF0F605EB8305322303EB05158A
:104AE000B5FBF2F5B6FBF2F605F0F00505EB0615A1
:104AF000B1FBF0F6B1FBF0F0B0FBF2F06FF0180193
:104B0000484306EB800003EB0010B0FBF2F0216895
:104B100000F00F002844886070BD0000003801409C
:104B200037B582B01346039A82620446838500201B
:104B30006064222184F84210E56B1B49A962E56B91
:104B40001A49E962E56B1A492963E16B48632168F8
:104B5000E06B091DFEF768FD206801684068009061
:104B6000206948B120680C3050E8001F41F4807182
:104B700040E80012002AF5D12068143050E8001FE8
:104B800041F0010140E80012002AF5D120681430FC
:104B900050E8001F41F0400140E80012002AF5D122
:104BA00005B0002030BD00004B480008D148000887
:104BB000014800080148FFF7D3B90000BC010020FC
:104BC00010B50448FDF736FFBDE810400148FFF777
:104BD000C7B90000040200200148FEF7ECB800004D
:104BE00094010020FEE70179C27941EA02618279ED
:104BF0004079120442EA0020084370472DE9F04151
:104C000005461F4616460C46104601F0A3FE804698
:104C10003146284601F06CFE01D2354605E02146BA
:104C2000284601F065FD00D225460120B840401E0F
:104C300001F032FD06462146284601F08BFE314642
:104C400001F08AFD414601F029FCBDE8F04101F088
:104C5000E7BC2DE9F04101249C40641E00EA0405F4
:104C60000F46104601F076FE0646204601F02CFD68
:104C70000446284601F028FD314601F06DFD21462D
:104C800001F00CFC3946BDE8F04101F099BB30B5AC
:104C90008FB028216846FBF7A2FB14210AA8FBF776
:104CA0009EFB0120010400248DE8130004904FF4C2
:104CB000E010CDE90810022507956846FEF776FF5B
:104CC00008B172B6FEE70F20CDE90A054FF4806007
:104CD000CDE90C4002210AA80E94FEF785FE0028BB
:104CE00001D072B6FEE70FB030BD014600204A0485
:104CF00000D510200A0601D540F020000A0701D592
:104D000040F008004A0701D540F001008A0701D5AC
:104D100040F00200C90701D040F0040070470000D5
:104D200010B588B00446002100F048F800210420A6
:104D30000791CDE90201082006910490218A4FF0E5
:104D4000C062207842EA01210843019001208DF8D9
:104D50001800054B06AA69460448FDF7D3FE204615
:104D600000F006F808B010BD2400002094010020D7
:104D700000B590F8451089B021B109B05DF804EB99
:104D800000F05CB9002204210792CDE9021208214B
:104D9000069204910178008A4FF0407242EA0020A6
:104DA00001430191034B06AA69460348FDF7AAFE99
:104DB00009B000BD240000209401002010B5044675
:104DC00090F8450088B028B108B02046BDE81040F2
:104DD00000F01CBA002006908DF8181007900421EE
:104DE000CDE9021008200490218A4FF080622078DB
:104DF00042EA012108430190074B06AA6946074889
:104E0000FDF780FE6A23002247F20501204600F0EC
:104E1000B7FB08B010BD0000240000209401002062
:104E20002DE9F84F0D46044690F84510DFF8E8816B
:104E3000DFF8E8C17A4FDFF8EC91DFF8ECA1DFF89A
:104E4000ECB11646D0B2A1B3FD2840D1E87838B90C
:104E5000287928B9687918B9A87908B9E87948B3E0
:104E6000B5F80100102340BA42466146FFF7F1FE53
:104E70002065E8782979000140EA11100C233A46B0
:104E80004946FFF7E6FE6065A8880C2340BA524603
:104E90005946FFF7DEFEA065E88840BA01F0E0F869
:104EA000634A644B01F02CF901F058F8E065BDE865
:104EB000F88F11E0FFE70020ADF80000B5F8010021
:104EC000ADF80000FFF711FF84F84400EFE7286811
:104ED000A0606868E060EAE72278C6F307218A42AA
:104EE000E5D1C6F30562022A05D0112A2ED0FE288C
:104EF000DDD12170EBE72888102340BA4246614695
:104F0000FFF7A7FE20656888102340BA3A46494655
:104F1000FFF79FFE6065A888102340BA52465946A5
:104F2000FFF797FEA065E88840BA01F099F8404A7B
:104F3000404B01F0E5F801F011F8E065C6F30540DB
:104F400084F84400C6F381502066B0E73A4F00264B
:104F5000288837F8161088425AD10E2E58D2DFE82A
:104F600006F0070C11161C22282E343A40464C52EB
:104F7000287901F0A9FBA0664AE02846FFF733FE36
:104F8000206745E02846FFF72EFEA06740E0284650
:104F9000FFF729FEC4F880003AE02846FFF723FE19
:104FA000C4F8880034E02846FFF71DFEC4F89000DE
:104FB0002EE02846FFF717FEC4F8980028E02846A0
:104FC000FFF711FEC4F8A00022E02846FFF70BFE11
:104FD000C4F8A8001CE02846FFF705FEC4F8B0009E
:104FE00016E02846FFF7FFFDC4F8B80010E0284699
:104FF000FFF7F9FDC4F8C0000AE02846FFF7F3FD0B
:10500000C4F8C80004E02846FFF7EDFDC4F8D0005E
:10501000761C0D2E9CDD4AE7B81E4941B81E49C1D9
:1050200000007041000070C10000F0420000F0C2BA
:105030009A9999999999B93F726B000800B589B00E
:105040000021009101910078029008200690FF2035
:105050008DF800008DF801008DF804008DF8020035
:105060008DF805008DF803008DF80600FC200491F2
:105070008DF80700034B6A4602A90348FDF742FD7D
:1050800009B000BD240000209401002070B5044642
:1050900090F8450020B12046BDE8704000F0CCBB40
:1050A0006263E162A06EB0F17E5F15D047F2050544
:1050B0006A230F4A2946204600F062FA2946204614
:1050C00000F0D4F92046FFF753FE702347F2170192
:1050D0002046626B00F054FA0120FEF7DDFA20460C
:1050E000E26ABDE87040702347F2160100F048BA4A
:1050F0000000A0402DE9F04788B08846DDE9105453
:105100000021009101910078029004910820CDE9DE
:105110000510344E344F9A46914610233246394694
:105120004046FFF76BFD000A8DF800001023324661
:1051300039464046FFF762FD2C4E2D4F8DF8010099
:105140000C23324639464846FFF758FD00098DF8D2
:1051500002000C23324639464846FFF74FFD254FE3
:1051600006010C233A4600215046FFF747FD46EA68
:1051700020208DF803000C233A4600215046FFF70B
:105180003DFD1D4E8DF804000C23324600212846BB
:10519000FFF734FD00098DF805000C23324600218D
:1051A0002846FFF72BFD154E154F05010C233246FF
:1051B00039462046FFF722FD45EA20208DF80600FB
:1051C0000C23324639462046FFF718FD8DF80700BC
:1051D0000C4B6A4602A90C48FDF794FC08B0BDE8E8
:1051E000F0870000B81E4941B81E49C10000704157
:1051F000000070C100409C450000C8420000F04221
:105200000000F0C2240000209401002000B589B005
:105210000021009101910078029008200690FF2063
:105220008DF800008DF801008DF804008DF8020063
:105230008DF805008DF803008DF80600FD2004911F
:105240008DF80700034B6A4602A90348FDF75AFC94
:1052500009B000BD240000209401002070B5C26296
:1052600004460162806E4FF07E5290421DD047F29C
:1052700005056A232946204600F082F92946204682
:1052800000F0F4F80120A0612046FFF771FD7023C3
:1052900047F224012046626B00F072F9702347F256
:1052A00025012046626A00F06BF90120FEF7F4F94F
:1052B0002046E26ABDE87040702347F2160100F014
:1052C0005FB9000030B589B0002200920423CDE917
:1052D00004320192082206920478008A4FF0C855E1
:1052E00045EA0020044301208DF8000002208DF8DB
:1052F000010003208DF8020005208DF8040006202F
:105300008DF805008DF806108DF803308DF8072014
:105310000394044B6A4602A90348FDF7F3FB09B066
:1053200030BD0000240000209401002070B588B03A
:105330000446DDE90C0600250095019526642362EC
:10534000A063C4E90A12A06E10F0FF4F0FD047F21D
:1053500005066A2300223146204600F011F9314645
:10536000204600F083F82046FFF702FDA561206E7D
:10537000022802D02046FFF7FBFC0420CDE90405FB
:105380000820069010232F4A2F49A06AFFF736FC09
:105390004FF0807141EA002021782C4D08432C4EBB
:1053A000039010232A463146E06AFFF727FC000AE3
:1053B0008DF8000010232A463146E06AFFF71EFCF4
:1053C000244D254E8DF8010010232A463146206ACF
:1053D000FFF714FC000A8DF8020010232A4631461C
:1053E000206AFFF70BFC1D4D8DF8030010232A46A1
:1053F0000021A06BFFF702FC000A8DF804001023C7
:105400002A460021A06BFFF7F9FB154D8DF805002A
:1054100010232A460021206CFFF7F0FB000A8DF8CC
:10542000060010232A460021206CFFF7E7FB8DF8C9
:1054300007000C4B6A4602A90B48FDF763FB08B056
:1054400070BD00000000F0420000F0C2B81E4941EB
:10545000B81E49C100007041000070C100409C4569
:105460000000C842240000209401002000B589B04B
:10547000002206928DF81810090A8DF8191007926B
:105480000421CDE90212082104910178008A4FF02D
:10549000885242EA002001430191044B06AA694662
:1054A0000348FDF72FFB09B000BD000024000020D9
:1054B0009401002010B588B0002100910422CDE9AC
:1054C00004210191082106910378008A4FF0B0541D
:1054D00044EA0020034301208DF8000002208DF8EB
:1054E000010003208DF8020005208DF8040006203D
:1054F0008DF8050007208DF8060003938DF8032032
:105500008DF80710034B6A4602A90348FDF7FAFA23
:1055100008B010BD240000209401002070B5026383
:1055200004460162806E4FF0804290421DD047F2E7
:1055300005056A232946204600F022F82946204620
:10554000FFF794FF2046FFF713FC0220A0617023B1
:1055500047F218012046226B00F012F87023074A28
:1055600047F22201204600F00BF82046226ABDE8EF
:105570007040702347F20A0100F002B80000204199
:10558000F0B589B000250446019504200295CDE9C7
:105590000505082007901646228A20784FF090577C
:1055A00047EA022210430490080A8DF804108DF88F
:1055B00005008DF806508DF80750702B02D06A2B2D
:1055C00002D010E002960EE0304601F029F8A0610A
:1055D000304601F041F88DF808008DF809508DF83B
:1055E0000A508DF80B50044B01AA03A90348FDF79C
:1055F00089FA09B0F0BD00002400002094010020C9
:1056000030B589B0002200920423CDE90432019222
:10561000082206920478008A4FF0B85545EA002027
:10562000044301208DF8000002208DF801000320C2
:105630008DF8020005208DF8040006208DF8050085
:105640008DF806108DF803308DF807200394044B75
:105650006A4602A90348FDF755FA09B030BD0000BB
:10566000240000209401002000B589B0002200929F
:1056700001920078029004920820CDE90520FF20D5
:105680008DF800008DF804008DF801008DF80500FC
:105690008DF802008DF803008DF8061001208DF8BA
:1056A0000700044B6A4602A90348FDF72BFA09B02C
:1056B00000BD0000240000209401002000B589B046
:1056C0000021009101910078029004910820CDE919
:1056D0000510FF208DF800008DF801008DF8040002
:1056E0008DF802008DF805008DF803008DF8060096
:1056F000FE208DF80700044B6A4602A90348FDF717
:1057000001FA09B000BD000024000020940100202F
:1057100070B5C161044681648069032810D047F2E6
:1057200005056A230B4A29462046FFF729FF29462B
:105730002046FFF79BFE0320A0612046FFF718FBE1
:105740002046E269BDE87040702347F20601FFF78A
:1057500017BF00000000404000B589B00022009251
:105760000192049205920822069200780290FF208E
:105770008DF800008DF804008DF801008DF805000B
:105780008DF802008DF803008DF80610FD208DF8CD
:105790000700044B6A4602A90348FDF7B3F909B0B4
:1057A00000BD0000240000209401002000B589B055
:1057B0000022009201920078029004920820CDE924
:1057C0000520FF208DF800008DF804008DF8010001
:1057D0008DF805008DF802008DF803008DF8061095
:1057E000FC208DF80700044B6A4602A90348FDF728
:1057F00089F909B000BD00002400002094010020B8
:1058000000B589B00023069307930078029340F413
:10581000007000900820CDE90330CDE90612044B5A
:1058200006AA69460348FDF76DF909B000BD0000FE
:10583000240000209401002000B589B000230693C5
:1058400007930078029340F4807000900820CDE91F
:105850000330CDE90612044B06AA69460348FDF75A
:1058600051F909B000BD000024000020940100207F
:1058700000B589B000220092019200780290049253
:105880000820CDE90520FF208DF800008DF80400E8
:105890008DF801008DF805008DF802008DF80300E9
:1058A0008DF80610FB208DF80700044B6A4602A90C
:1058B0000348FDF727F909B000BD000024000020CF
:1058C0009401002030B589B0002200920423CDE974
:1058D00004320192082206920478008A4FF0C055E3
:1058E00045EA0020044301208DF8000002208DF8D5
:1058F000010003208DF8020005208DF80400062029
:105900008DF805008DF806108DF803308DF807200E
:105910000394044B6A4602A90348FDF7F3F809B063
:1059200030BD0000240000209401002010B50B467B
:1059300014460749643000F00DF800F8643DFD217D
:1059400001820021816180F8454080F8461010BD39
:10595000726B00080A8802804A8802818A88028263
:10596000CA8802830A8902844A8902858A89028652
:10597000CA8902870A8AA0F840204A8AA0F84820EB
:105980008A8AA0F85020CA8AA0F858200A8BA0F86A
:1059900060204A8BA0F86820898BA0F870107047AF
:1059A000490050EAC12018BF04204A0D18BF40F03A
:1059B000010040F2FF72B2EB515F08BF40F00200FD
:1059C000012808BF052070470907090E002804DBDD
:1059D00000F1E02080F80014704700F00F0000F1A3
:1059E000E02080F8141D704740F2013200204FF093
:1059F000E04101F05DB80000024A0020110701F00B
:105A000057B8000001FDFFFF10B50446D1E90001C1
:105A100000F002F8206010BDF8B504460D466A4655
:105A200000F072F800987E30009000281EDC002202
:105A300013462046294600F0D7FA17D0002140F639
:105A400008004FF0000006462046294600F086FA7E
:105A5000044640F6080006EA00014FF0000034F06A
:105A6000004004BF0220FBF7BEFC29E00098FF289D
:105A700028DB002108464FF0000000F44006002219
:105A800013462046294600F039FC8CBF002501252D
:105A90000220FBF7A8FC4FF0FF4446B1002D0CBFDD
:105AA0004FF400004FF48000B04218BF084C0421AE
:105AB00008464FF00000002D04BF84F00040F8BD00
:105AC0002046F8BD20462946BDE8F84000F046BA19
:105AD000FFFF7F7F002201210148FFF727BF000061
