:020000040800F2
:10000000601700207D020008574F0008094C0008C7
:10001000554F0008BD2C000849550008000000009D
:100020000000000000000000000000000D5000086B
:100030001B30000800000000594F00088D500008D8
:10004000970200089702000897020008970200082C
:10005000970200089702000897020008970200081C
:10006000970200089702000897020008970200080C
:10007000A92F0008B52F0008C12F0008CD2F0008B8
:10008000D92F0008E52F0008970200089702000802
:100090003D550008970200089702000897020008E3
:1000A00097020008970200089702000897020008CC
:1000B00097020008970200089702000897020008BC
:1000C00097020008970200089702000897020008AC
:1000D000970200080D550008195500083155000811
:1000E000970200089702000897020008970200088C
:1000F000970200089702000897020008970200087C
:10010000970200089702000897020008970200086B
:10011000970200089550000897020008970200080F
:10012000970200089702000897020008970200084B
:1001300000F002F800F092F80AA090E8000C824467
:100140008344AAF10107DA4501D100F087F8AFF244
:10015000090EBAE80F0013F0010F18BFFB1A43F0A5
:10016000010318474C7A00006C7A0000103A24BF53
:1001700078C878C1FAD8520724BF30C830C144BF0C
:1001800004680C607047000000230024002500264E
:10019000103A28BF78C1FBD8520728BF30C148BFEA
:1001A0000B6070476E2900F01382702900F05D83A8
:1001B000662907F0B382652907F0B082672907F046
:1001C000AD82612907F0AC8203681B0A28BF41F0A9
:1001D0008001692900F0C081642900F0BD81752982
:1001E00000F0BA816F2900F0EA82782900F02983B3
:1001F000E92900F08582E42900F08282F52900F0E7
:100200007F82EF2900F0E782F82900F02883036855
:10021000DB0928BF41F08001632901F0FB827329CB
:1002200001F00083E32901F00B83F32901F010832F
:10023000002070471FB500F0A7FE04000020002139
:1002400006F0DCFC401C60600020002106F0C0FCD1
:10025000E06000F00DF91FBD10B510BD01F09EFD6E
:100260001146FFF7E7FF06F0EBFA02F03BF803B4A4
:10027000FFF7F2FF03BC02F0A1F800000948804735
:1002800009480047FEE7FEE7FEE7FEE7FEE7FEE778
:10029000FEE7FEE7FEE7FEE704480549054A064B90
:1002A00070470000915000083101000860110020E3
:1002B0006017002060130020601300207CB51D46ED
:1002C00016460C00009001D02044401E074B7B4492
:1002D0002A4669460190304600F093F905461CB164
:1002E0000020694600F0A0F928467CBD61030000AB
:1002F0000FB400B58DB010A9099000910B904FF08C
:10030000FF300A9000200C9006487844069006487A
:1003100078446A4607900F9909A800F0F7FD0DB0E0
:100320005DF814FB1F0C0000370C0000032A40F29C
:10033000308010F0030C00F0158011F8013BBCF187
:10034000020F624498BF11F801CB00F8013B38BF9F
:1003500011F8013BA2F1040298BF00F801CB38BFAD
:1003600000F8013B11F0030300F02580083AC0F0CB
:10037000088051F8043B083A51F804CBA0E8081073
:10038000F5E7121D5CBF51F8043B40F8043BAFF3A6
:100390000080D20724BF11F8013B11F801CB48BF00
:1003A00011F8012B24BF00F8013B00F801CB48BF36
:1003B00000F8012B704710B5203AC0F00B80B1E86F
:1003C0001850203AA0E81850B1E81850A0E818508A
:1003D000BFF4F5AF5FEA027C24BFB1E81850A0E893
:1003E000185044BF18C918C0BDE810405FEA827CAD
:1003F00024BF51F8043B40F8043B08BF7047D207C4
:1004000028BF31F8023B48BF11F8012B28BF20F864
:10041000023B48BF00F8012B70474FF0000200B5C7
:10042000134694469646203922BFA0E80C50A0E817
:100430000C50B1F12001BFF4F7AF090728BFA0E8C5
:100440000C5048BF0CC05DF804EB890028BF40F891
:10045000042B08BF704748BF20F8022B11F0804FD3
:1004600018BF00F8012B70477047704770470000B5
:1004700070B5064C7C44064D7D4403E02068204462
:100480008047241DAC42F9D170BD00009478000073
:100490009478000070B5044685690068C10601D5EE
:1004A000302600E02026C00707D070BDD4E9012126
:1004B00030469047206A401C20626D1EF6D570BD04
:1004C00070B5044685690078C00707D170BDD4E9CE
:1004D000012120209047206A401C20626D1EF6D525
:1004E00070BD09684A0501D540B27047C905FCD501
:1004F00000B2704709684A0501D5C0B27047C90506
:10050000FCD580B2704770B50C460546012A05D06F
:100510002878800600D5EA69002302E0012305E07F
:100520005B1C934202D2E05C0028F9D1A869E6186E
:10053000C01AA861286A184428622846FFF7AAFF53
:1005400004E0D5E9012114F8010B9047B442F8D337
:100550002846FFF7B5FF70BD2DE9F041064600249F
:1005600010687529314616A510D0FFF7BAFF00288C
:1005700002DA404213A507E031688A0701D512A5C7
:1005800002E0490704D511A5012401E0FFF7B2FFFD
:1005900000210A2206F1240709E0B0FBF2FCB0FBBF
:1005A000F2F302FB1C00303078541846491C002836
:1005B000F3D123462A463046BDE8F04100F03ABD6B
:1005C000000000002D0000002B00000020000000B3
:1005D00011680268006A530501D508700AE0D30566
:1005E00001D5088006E0130603D5C217C1E9000251
:1005F00000E008600120704701694A1C0261087828
:10060000704700B58FB0CDE9013100210591054952
:100610007944CDE903101146684600F031F90FB076
:1006200000BD0000E5FFFFFF0A6802F8010B0A6049
:100630007047D1E900239A4202D2531C0B6010701C
:10064000704700002DE9FF5F15468A460446DFF833
:10065000AC80F8440027D8E900103E46CDE90010F0
:1006600010E03AF816106A4602A801F073FB411C2C
:1006700007D02178890603D5E269391891420DD84F
:100680000744761C2078800602D5E069B84205DD73
:10069000AE42E6DB3AF816000028E2D1A069C01BA2
:1006A000A0612046FFF7F6FED8E90010CDE9001062
:1006B000002017E03AF818106A4602A801F04AFB39
:1006C000B0F1FF3F81460BD000250DF1080B05E08E
:1006D000D4E901211BF8050090476D1C4D45F7D367
:1006E00008F10100B0428046E4DB206A3844206211
:1006F0002046FFF7E5FEBDE8FF9F00005E740000A6
:100700002DE9F0418046D21D22F007020025D2E9F2
:100710000002F52915A614D0011E72F1000106DAB7
:100720000023D0EB030063EB020211A608E0D8F827
:1007300000108B0701D50FA602E0490701D50EA6D0
:1007400001251146002408F1240704E000F024FCF0
:1007500030323A55641C50EA0102F7D12B4632463A
:1007600021464046BDE8F04100F064BC00000000B6
:100770002D0000002B0000002000000030B40021FC
:1007800000F1240408E002F00705D208303542EAFF
:100790004372DB086554491C52EA0305F3D104682F
:1007A000002310A2250707D5A40600D421B1C469EF
:1007B00001230DA2641EC46130BC00F03BBC10B527
:1007C000044621461068FFF795FE02462046BDE824
:1007D00010400023D2E7D21D22F00701D1E9002307
:1007E000CCE700000000000030000000F0B40D462F
:1007F0000188090502D5214C7C4402E01F4C7C4451
:100800000E34002100F1240608E002F00F0712095F
:10081000E75D42EA03721B097754491C52EA030759
:10082000F3D102780023120704D5702D06D009B148
:10083000022311342246F0BC00F0FCBB012310342B
:10084000F8E770B504460D4621461068FFF752FEE2
:10085000024629462046BDE870400023C6E7D21D67
:1008600022F00703D3E90023C0E70368126843F0CE
:10087000200303600823C3610023B7E7C0720000B0
:100880002DE9F05F894604464FF0000ADFF874B1A5
:10089000FB44C0F820A02046E1688847002874D0B7
:1008A000252806D0D4E901219047206A401C206207
:1008B000F1E700265F462046E16888472028054684
:1008C00007DB312D05D2781910F8200C08B106434A
:1008D000F1E7B00701D526F00406C4F81CA00027F4
:1008E000C4F818A02A2D09D0284605F03CFF38B3DB
:1008F00004EB8708303DC8F8185019E059F8041B7C
:10090000204604EB87029161E1688847012F054684
:1009100018D1E069002820DA26F020061DE0D8F87A
:10092000180000EB800005EB40003038C8F81800D4
:100930002046E1688847054605F015FF0028EED1FE
:10094000012F0AD02E2D08D12046E16888477F1C50
:100950000546022F46F02006C4DBA069002803DA12
:10096000404246F00106A061F00701D026F01006D3
:100970006C2D0BD0682D09D04C2D39D06A2D35D077
:10098000742D35D07A2D33D016E038E0E1682F464B
:1009900020468847B842054609D16C2F26D04FF42F
:1009A0008060E168064320468847054604E06C2FD6
:1009B0001AD04FF4807006430DB3A5F141001928F9
:1009C00002D8203546F400664A462946204626606D
:1009D0004E46FFF7E7FB80B101280BD0F61D26F04D
:1009E000070000F1080956E74020E4E78020D8E737
:1009F0000020D6E706F104094DE7284652E7206AB1
:100A0000BDE8F09F507200002DE9FF4F06468BB005
:100A10000878FF2806D0491C2D2805D000244FF067
:100A2000000908E000200CE00124F8E709EB890345
:100A3000491C00EB43090878FF28F7D114B1C9F12C
:100A400000008146107800252C46AA4629462D280C
:100A500001D02B2804D1521C2D2813D0002082460F
:100A60008B461078FF280FD04FF0000C0A21521C43
:100A7000A5FB017804FB018105FB0C11C5194BEBAB
:100A80000104EEE70120EAE7002108464FF00000EC
:100A9000BAF1000F02D000EB80004008C0F381578C
:100AA000012F01DD4FF0FF370E9955EA040009EBE5
:100AB00001080BD04FF0020918F5FA7F16DA4FEA59
:100AC000CA70002F706008DD012007E04FEACA708D
:100AD000C6E900B00FB0BDE8F08F0020306000F034
:100AE00057FAC0F800901821084616E0B8F5FA7FCA
:100AF00018DD002F02DAF748784401E0F648784420
:100B0000D0E90010C6E9001040EACA70706000F039
:100B10003FFAC0F80090142108460FB0BDE8F04F2E
:100B200006F0F9BD002108464FF00000B8F10001C1
:100B3000099002DAC7F1000200E03A4601DAC8F192
:100B4000000106A801F094F806AB93E8070003AB98
:100B500083E8070044F23E005BEA04010090584637
:100B600004D144F21E012C465D460091210C09047B
:100B7000014306D10099240444EA15442D04103998
:100B8000009104F07F41014306D10099240244EA18
:100B900015642D020839009104F07041014306D11B
:100BA0000099240144EA15742D01091F009104F0F5
:100BB0004041014306D10099A40044EA9574AD0078
:100BC000891E009104F00041084304D100986D197A
:100BD0006441401E00904FF001033A466846B8F168
:100BE000000FCDE9014503A902DD01F0EAFE01E0B5
:100BF00001F0BDFEBAF1000F04460D4601D084F0AD
:100C00000044002108464FF00000099940F2FF77A8
:100C1000484010F00C0F07D124F00040284303D0C7
:100C2000C4F30A50B84212D100F0B2F9C0F80090F3
:100C3000C4F30A50B8420AD1A8487844D0E9001059
:100C4000C6E9001004F000410843706042E7C6E9BD
:100C500000543FE72DE9FF4F1F464FF0000A4FF0C9
:100C6000FF38454691B0D7E90146CDF83CA000F0E9
:100C70008BF9C0680168405C1090B96912986D1CCE
:100C80008847396A814688470028F6D1B9F1FF3F85
:100C90000AD0002E24F4D06411DDB9F12B0F08D056
:100CA000B9F12D0F0BD102E0404615B013E744F423
:100CB0008064B96912986D1C8847761E814660056C
:100CC00004A901D52D2000E02B20002E01F1010BFD
:100CD0000DF130088DF810003FDDB9F1690F08D033
:100CE000B9F1490F05D0B9F16E0F02D0B9F14E0F2D
:100CF0001CD13B4601A8009580E85002DDE91212A4
:100D00006FF0020006F098FDC11CCED10EE0B9696B
:100D100012986D1C884781461398761E44F400741F
:100D200005600F98401C002E0F9016DDB9F1300FB2
:100D3000EDD0B9F1780F02D0B9F1580F0DD10F985D
:100D400001280AD13B46CDE90054DDE91212001F0B
:100D5000029606F06FFDC11CA7D1109989453ED1BE
:100D600044F0800406E01399681CAAF1010A44F4D7
:100D700000740860B9696D1C1298761E8847302887
:100D80008146F0D02BE01099894505D1200603D487
:100D9000761E44F0800418E0484605F0E4FC08B3F1
:100DA000761E0DF123018B4544F4007408D2A9F19D
:100DB00030000BF8010B200607D5AAF1010003E073
:100DC000200602D40AF101008246A00502D513993B
:100DD000681C0860B96912986D1C88478146002E0E
:100DE000D1DC53E0002E51DDB9F1650F02D0B9F12D
:100DF000450F4BD1A00549D5B9696D1C1298761ED7
:100E000024F440748847002E81460CDD2B2804D042
:100E1000B9F12D0F07D144F48074B96912986D1C93
:100E20008847761E8146E00501D52D2100E02B2163
:100E300008F8011BCDF8008021E0761E0DF1390184
:100E4000884544F400740CD2A9F1300010F0FF0082
:100E500088F8000002D10099884509D908F10108F5
:100E600006E0E00501D51E4801E042F20F7082461F
:100E7000B96912986D1C8847814613980560002E49
:100E800004DD484605F06FFC0028D6D1F9691298B8
:100E90008847FF2053468BF8000088F800000020A8
:100EA0000A900B9004AA0CA90AA8FFF7ADFDA005B3
:100EB00002D46FF00100F8E614F0240F12D0E0071E
:100EC0001CD13868DDE90A12031D3B600068C0E9E7
:100ED000001213E0DC700000CE700000926F000082
:100EE000F1D8FFFF0AA9684605F0C4FBE00705D169
:100EF0003868009A011D3960006802602846D4E60F
:100F0000026811441378016018467047D1600549A2
:100F100079445161044979441162002111611146FB
:100F200000F09ABCEDFFFFFF09010000426842B1EA
:100F3000016811F8013B23B1521EC0E900121846A6
:100F400070470121C160881E704742685AB1C3686A
:100F5000016843B983688B4205D0491E521CC0E921
:100F60000012002070474FF0FF3070477CB50546F7
:100F700000236846CDE9003300F046FE6946284666
:100F800005F078FB7CBD0000004870471C11002074
:100F900000487047FC10002030B5B0F10A024FEA5B
:100FA000900E71F100034EEA817EB0EB0E0061EB12
:100FB00091014FEA101E4EEA017E10EB0E0041EB4C
:100FC00011114FEA102E4EEA016E10EB0E0041EBAC
:100FD00011214FEA104E4EEA014E10EB0E0041EB8C
:100FE0001141401841F100014FEAD00040EA417040
:100FF0004FEAD10110EB80054FEA810444EA907476
:1010000044EB01046D1944EB0404521BA3414FF05F
:10101000000348BF0A3200D530BD401C41F1000139
:1010200030BD10B5044600F0DFFE0068005D00F042
:10103000010010BD2DE9F0470D4699469246044641
:1010400000F124080168880604D5E06921F0100148
:10105000216000E00120A84201DD471B00E00027DD
:10106000A1697A1902EB0900081AA0612078C0066C
:1010700002D42046FFF70EFA002608E0D4E9012149
:101080001AF806009047206A401C761C20624E45E4
:10109000F4DB2078C0060AD52046FFF7FBF906E00E
:1010A000D4E9012130209047206A401C2062381E7C
:1010B000A7F10107F4DC07E0D4E9012118F80500E5
:1010C0009047206A401C2062281EA5F10105F3DC30
:1010D0002046FFF7F5F92078000602D50220BDE88A
:1010E000F0870120FBE770472DE9FF4F0C461E46B5
:1010F0004FF0FF378BB0D2E90001DDF860800A9035
:101100008A46C1F30A5505B93D46002108464FF00D
:101110000000BAF1000F00F4400005DA00EB800097
:101120004FF4400101EA50004FEA9059B9F1010F24
:1011300000DDB9460A9850EA4A000ED044F6105035
:10114000A5F2FF3545432F14B8F1000F1ED07542AC
:10115000291E1EDDC9F100021CE0B8F1010F4FF09D
:10116000000001D0302103E0F24305E02154401C8F
:10117000B042FBDB30460022002121540B99C1F81C
:101180000880C1E900200FB0BDE8F08FBD1B6D1CC9
:10119000DEE74A4600DA694206A800F069FD06ABC0
:1011A00093E8070003AB83E8070050460A9901F073
:1011B0000BF98DE80700A0F500501F380090039848
:1011C000002D0ADD42F21F014A460844002303A90C
:1011D0000390684601F0B6FB09E0A0F500504A46CE
:1011E0001F38002303A90390684601F0D5FB8DE862
:1011F00007000004000C03D04FF0FF30410800E06E
:101200001046B8F1000F03D00022009215461EE0F0
:10121000751E05D4FFF7C0FE303262556D1EF9D53C
:10122000B3460122084302D000227F1C04E020784C
:10123000302801D100227F1E002A099784D01DE0AA
:10124000112D07DAFFF7A8FE303262556D1C50EA07
:101250000102F5D1084302D00098C8B10EE0002188
:10126000681E05E0235C625C63542254401E491CE6
:101270008142F7DBAB46A81B401E0990002004F812
:101280000B000B98099AC0F80880C0E9002B7AE798
:1012900011264FF0000857E72DE9F04F8846044625
:1012A000D21D22F0070191B0D1E90001CDE90A0178
:1012B00005F096F902460B98C00F01D02D2007E0EB
:1012C0002068810701D52B2002E0202101EAC0001F
:1012D000032A099001D0072A05DB03464146204630
:1012E00000F096FD0BE12078800601D5E06900E072
:1012F0000620B8F1650F814606D0B8F1660F18D008
:10130000B8F1670F70D131E00020B9F1110F0090F2
:1013100001DB112301E009F101030AAA01A90CA8CC
:10132000FFF7E2FEDDE90C70002609F101058346B6
:1013300047E001204B4600904FF000470AAA01A960
:101340000CA8FFF7D1FEDDE90DB00C995D46002633
:1013500010B909F101000D18B9EB050003D4C0F173
:10136000FF3609F10105A5EB09002BE0B9F1010FEA
:1013700001DA4FF001090020B9F1110F0090484641
:1013800001DD112300E003460AAA01A90CA8FFF71A
:10139000ABFEDDE90C704D46002683462078000741
:1013A0000AD4AB4500DA5D4601A8012D04DD4119E0
:1013B00011F8011C302907D04F4502DA17F1040F4C
:1013C00004DA012082460FE06D1EEEE7002F02DCFA
:1013D000ED1B3E4403E0781CA84200DD7D1CB81BD9
:1013E00000F1010A4FF000472078000703D4AA4516
:1013F00001DB4FF0FF3A0021B7F1004F0DF1430838
:101400008DF8431024D002202B23002F01DA7F42D5
:101410002D230A21021EA0F1010000DC5FB197FB21
:10142000F1FC97FBF1F201FB1C7C17460CF1300C30
:1014300008F801CDEEE7A8F1010003702188090545
:1014400001D5452100E06521A0F1010800F8011C4B
:1014500009980FA9A1EB0807FF1D00B10120411950
:1014600001EBEA70A1693844081A401EA061207897
:10147000C00602D42046FFF70DF8099828B1D4E938
:1014800001219047206A401C20622078C00622D5A6
:101490002046FEF7FFFF1EE0002E04DBB34502DD11
:1014A00001A8805D00E03020D4E901219047206A46
:1014B000401C2062761CAAF101005FEA000A0AD1F2
:1014C000FFF762FDC0680168405CD4E901219047E4
:1014D000206A401C2062281EA5F10105DCDC07E023
:1014E000D4E9012118F8010B9047206A401C2062C2
:1014F000381EA7F10107F3DC2046FEF7E1FF0320C9
:1015000011B041E62DE9F04F04460D46D21D22F000
:10151000070089B0D0E900974846394605F060F8E1
:101520000246F80F01D02D2307E02068810701D57E
:101530002B2302E0202101EAC0038DF820300BB1FB
:10154000012000E00020032A824601D0072A04DBA4
:101550002946204600F05CFC3FE12078800601D45B
:101560000D2500E0E569C7F30A560D2D49DA002183
:101570004FEA175B08464FF00000002F00F44000D0
:1015800007DA00EB80004FF4400100EBD07001EA75
:1015900060008115012901DD4FF0FF3100224FEA83
:1015A000850CBCF1180F06D31346ACF118004FF0B0
:1015B0008052C24003E04FF4801323FA0CF30CF185
:1015C0000C0CBCF1200F04D3ACF1200C09FA0CF088
:1015D00001E007FA0CF000294FF0004801DD18B9CE
:1015E0000FE00ED140450CD319EB02095F4121B940
:1015F000404502D19F4329EA0209BBEB175F00D0A7
:10160000761C2088000502D57B48784402E07A48A1
:101610007844193808AA302302F80A30037C0AF10A
:101620000101002E0AF1020A53546A4602DC4FF00F
:10163000300101E04FF031014FF001088DF800104A
:1016400002D0A6F2FF3603E059EA470100D06B4E04
:10165000002D02DC2178090704D54FF002082E2165
:101660008DF80110C44600210BE0C7F303433F018E
:10167000C35C491C6D1E02F80830052908F10108F9
:1016800001DA002DF1DC00210CE000EB1973491C9C
:101690001B786D1E082902F808304FEA091908F175
:1016A000010801DA002DF0DC21688B0602D516E076
:1016B000A8F10108E04505DD02EB080313F8013C41
:1016C000302BF5D0B8F1000F09DD02EB080313F859
:1016D000013C2E2B03D1090701D4A8F10108002DEC
:1016E00005DD3E2102F808106D1E08F10108407C5E
:1016F000002E02F8080008F1010804DA2D207642D5
:1017000002F8080002E02B2002F808000A214FF43A
:101710007A70864208F101080BDB96FBF0F3303358
:1017200002F8083096FBF0F308F1010800FB13669D
:1017300001E0642E0CDB642096FBF0F3303302F8FA
:10174000083096FBF0F308F1010800FB136601E096
:101750000A2E06DB96FBF1F0303002F8080008F1A3
:10176000010896FBF1F001FB1060303002F8080030
:10177000A16908F1010808EB050202EB0A00081A4A
:10178000A0612078C00602D42046FEF783FE216ABD
:1017900008AE01EB0A00206204E0D4E9012116F84A
:1017A000010B9047BAF1010AF7D22078C00602D5A2
:1017B0002046FEF76FFE6E4609E016F8010B3E2844
:1017C0000FD0D4E901219047206A401C2062B8F173
:1017D0000108F2D22046FEF773FE09B00320BDE8EF
:1017E000F08F206A2844206203E0D4E901213020F0
:1017F00090476D1EEBD3F8E7FA64000002FCFFFF90
:1018000010B5436913B1AFF3008001E0FEF77BFE32
:10181000012010BD127800F124010A7000224A70E4
:101820000122EDE711684FF0FF32E9E710B5436997
:1018300013B1AFF3008001E0FEF704FF012010BDFB
:10184000128800F1240182840022C2840122EDE783
:1018500011684FF0FF32E9E72DE9F34F4FF0000A2E
:101860000C4656468DB001200C9001F10C000B90F7
:1018700062690B9801219047051E2DD0252D2CD093
:10188000216A8847C0B162690B9801219047216A9B
:1018900088470028F7D16269411E0B98904700E005
:1018A000761CA1690D988847216A88470028F7D1DE
:1018B000E1690D988847DBE7A1690D988847A84240
:1018C000074601D1761CD3E7E1690D9888477F1C54
:1018D00002D1BAF1000F6FD06CE162690B9800275A
:1018E0003D46394690472A2804D162690B98012168
:1018F00090470125DFF8D08262690B98012190475B
:10190000A0F130010A290AD24745E5DC07EB87013F
:1019100000EB4107303FDFD445F01005ECE7E90666
:1019200001D46FF000476C280AD04C2814D06828E6
:1019300015D06A280DD074281CD07A281AD01DE042
:1019400062690B98012190476C2802D045F004058C
:1019500014E045F002050DE045F020050AE062695B
:101960000B9801219047682802D045F0080505E052
:1019700045F4006562690B9801219047C4E901575D
:1019800065283DD019DC58287AD00CDC452837D0A2
:1019900004DC252826D041289ED131E046282FD0CE
:1019A000472899D12CE05B2877D0612828D063287C
:1019B0007CD0642823D15AE0F7E06F2848D008DCB7
:1019C00066281DD067281BD0692821D06E2816D123
:1019D00027E0702845D0732868D0752847D078282C
:1019E0000DD14DE0A1690D988847252805463FF4A3
:1019F00069AFE1690D9888476D1C3FF46AAFD9E083
:101A00000D9923466A466FF0010005F011FFC6E00C
:101A100045F0400023464FF000026060A80736D42E
:101A20003EE0E8077FF447AF2068011D21600068B1
:101A3000290501D506701BE7290701D5068017E7A0
:101A4000A90703D5F117C0E9006111E706600FE7A8
:101A500045F0400023464FF008026060A80716D406
:101A60001EE040F60E0125EA0100606016E045F038
:101A7000400023464FF00A026060A80707D40FE039
:101A800045F040006060A80708D5234610220D9954
:101A90006FF00100AFF3008081E007E010222346E1
:101AA0000D996FF00100AFF3008078E04FF000096E
:101AB00063284F46C8464B46CB4602D05B2807D02A
:101AC00039E02079C00601D40120A060012732E06E
:101AD0006269D4F80CB00B98012190475E2807D1B9
:101AE0004FF0010949466269D4F80CB00B98904751
:101AF000216939B900210A4603AB43F82120491C6A
:101B00000829FADBD8B3216949B308F101086269F1
:101B10000B98012190475D28F4D1B9F1000F09D04D
:101B2000002003A951F82020D24341F82020401C76
:101B30000828F7DB03AB2069002820794FEA4070C2
:101B40001ED05B462246CDF80080CDE901970D9965
:101B500000286FF0010020DAAFF300801FE0C1170A
:101B600003AA00EBD1614B1121F01F0102EB8302AC
:101B7000411A13680120884003431360C7E719E046
:101B80000D99224600286FF00100009702DAAFF3AA
:101B9000008004E0AFF3008001E0AFF30080002894
:101BA0000ADA401C06D10C9820B14FF0FF300FB07C
:101BB000BDE8F08F5046FAE7E90701D10AF1010AC2
:101BC000064400200C9053E6CCCCCC0C0FB4002380
:101BD00000B589B00CA900910B99CB60214B7B44D7
:101BE0000693214B7B44079304236FF00042CDE919
:101BF00001321E4A7A446B4608920246002005F0E4
:101C000017FE09B05DF814FB70B506464FF0FF30C3
:101C100015460C46324686B00091CDE90101694671
:101C20000020049004A8FFF7D1FF02460498211871
:101C300025B108B1084600E0204628600498002835
:101C40000DD0002A02DD0098884208D03246081BD9
:101C500069460094CDE9010404A8FFF7B7FF06B078
:101C600070BD00004BF3FFFF63F3FFFF2BF4FFFF9A
:101C70002DE9F047814616468AB0354878440DC8AC
:101C80008DE80D0032487844801C03AC0DC884E810
:101C90000D0041F69B300844372190FBF1F290FB98
:101CA000F1F5A5F1800501FB12041B3C02D564424D
:101CB000012000E00020DFF898A080460027FA44C9
:101CC000AAF1BE0A0EE0E0070AD03246684607EBEA
:101CD000470101230AEB810100F05EFE8DE8070059
:101CE00064107F1C002CEED1194F7F44AE3F19E0E9
:101CF000E80715D007EB04100DF1180A90E80E0064
:101D00008AE80E00C068F04201D198190890324666
:101D1000012306A903A800F03FFE03AB83E80700F8
:101D20006D10641C002DE3D14FF00103324669466B
:101D3000B8F1000F03A802D000F004FE01E000F0AB
:101D40002BFEC9E90001C9F808200AB0BDE8F087F8
:101D5000185F000070B516460C46054600F044F8C2
:101D6000036893F80101012806D0FF2C0FD8185DF5
:101D700068B101202C7070BDD3F8070132462146AE
:101D800003F2071303442846BDE8704018474FF09C
:101D9000FF3070BD00487047FC1000207546FFF70B
:101DA000F9FFAE4605006946534620F00700854618
:101DB00018B020B5FEF770FABDE820404FF00006DD
:101DC0004FF000074FF000084FF0000B21F0070123
:101DD000AC46ACE8C009ACE8C009ACE8C009ACE866
:101DE000C0098D467047000010B5FFF7CDF8001D03
:101DF00010BD00BF094E000010B5FFF7C9F800681C
:101E000010BD10B50446FFF7C3F8046010BD000014
:101E10002DE9F0411F46044603260168072A01F414
:101E2000006004DB08B116A505E016A503E008B1C3
:101E300015A500E015A521F010002060A069C01EC6
:101E4000A0610FB1401EA0612046FEF723FB4FB1F9
:101E5000D4E9012138469047206A401C2062C01C0A
:101E6000206206E0206AFAE7D4E9012115F8010BA7
:101E70009047761EF8D22046FEF722FBBDE8F0819F
:101E80004E414E006E616E00494E4600696E66001E
:101E90002DE9FF4F1F464FF03C0987B04FF000423D
:101EA000DDE9141001F10108DDF858A002EA405004
:101EB0000390002005908346054604460490B969C6
:101EC000461E08988847AAF1010A0290BAF1000F4D
:101ED0003BDD02982E2815D0102100F060FA002872
:101EE0002EDB4FF0010B0599014317D0B9F1000F1C
:101EF0000BDB4A46C11700F03FFA05430C43A9F13A
:101F0000040905E0012004900BE008B145F001054B
:101F100001200590049820B9361D02E0049800B114
:101F2000361FB969089808F101088847BBF1000F0E
:101F3000AAF1010A0290C9D00999C1F80080C5E749
:101F40000298702808D0502806D0F9690898884768
:101F5000BBF1000F14D04FE0002002900120BBF134
:101F6000000F049009D0B969089808F10108884762
:101F7000AAF10109B9F1000F07DCF969089888474F
:101F80006FF001000BB0BDE8F08F2B2804D02D2896
:101F90000CD14FF0FF300490B969089808F101089E
:101FA0008847A9F10109B9F1000FE6DD411CE4D031
:101FB0000A2100F0F4F90028DFDB029908F101089A
:101FC00001EB810100EB41000290B9690898884754
:101FD0000A2100F0E4F9099AA9F10109B9F1000F09
:101FE000C2F8008001DD0028E7DAF969089888471F
:101FF0000499029800FB016655EA040004D004F03D
:102000004041090002D006E0039898E0A40044EAA9
:102010009574AD00B61E04F00041080002D16D19A0
:102020006441761E159810F0240F03D04FF00B0971
:102030005C4803E04FF028096FF07D00824656456A
:1020400007DAAAEB06018944B9F1410F01DD4FF02F
:10205000410901200021A9F1010200F08DF9024699
:1020600028400B462140084301D0012100E0002117
:10207000501E029143F1FF3128402140084301D016
:10208000012000E000200299834651EA0B014FD065
:10209000002108464FF00000039900F4400039B1D8
:1020A00000EB80004FF4400100EBD07001EA6000CB
:1020B0008015012802DD4FF0FF3000E013D0401CF6
:1020C00036D0029860B3BBF1000F0CD14A46012014
:1020D000002100F051F928402140084301D001209F
:1020E00000E00020E0B101204A46002100F044F960
:1020F000034640190A4661412D1A8C4111D3B9F1AA
:10210000400F09DD159810F0240F02D0AAF1340613
:1021100003E0AAF1170600E0761C00254FF000440A
:1021200006E05B1E42F1FF3220EA030521EA0204C9
:10213000CAF10100B04206DA1B4903980843019036
:10214000002000900EE0039AC4F3D321E80A0A436A
:10215000164940EA44500A433146CDE90002684638
:1021600004F0F6FA159810F0240F0BD01598C0075C
:1021700015D13868DDE90012031D3B600068C0E935
:1021800000120CE002A8694604F074FA1598C00722
:1021900005D13868029A011D396000680260404626
:1021A000F0E6000002FCFFFF0000F07F0000F03FBF
:1021B0002DE9FF4F92461D4685B04FF00041DDE905
:1021C000124BDDE914727F1E01EA4B50414940F089
:1021D000FF4940EA0108002122F02000492804912B
:1021E00002D04E2828D04CE03BA0012607C88DE83D
:1021F0000700A9690698641C88477F1E014606D41B
:102200001DF8060018B121F0200181420BD0E969C8
:1022100006988847032E34D0082E32D06FF0010084
:1022200009B0BDE8F08F761C032E01D0082EE0D156
:10223000601CCAF80000DCE7A9690698641C88479E
:102240007F1E2AD420F02000412826D1A9690698B3
:10225000641C88477F1E20D420F020004E281CD10B
:10226000A9690698641C88477F1E48F4002849F431
:102270008009CAF8004001D4282806D0E9690698E8
:1022800088475FEACB7012D022E0A9690698641CE7
:1022900088477F1E01D4002803DAE9690698884739
:1022A000BCE72928F1D1641CCAF80040E9E71BF01B
:1022B000240F07D028680499031D2B600068C0E92B
:1022C000001805E02868021D2A600068C0F8009028
:1022D0002046A5E70000F07F494E46494E49545933
:1022E0000000000010B50446AFF300802046BDE8B2
:1022F0001040FDF7BCBF00004FF0013C50F8042B2C
:1023000051F8043B9A4221D1A2EB0C03934313EA08
:10231000CC1317D150F8042B51F8043B9A4215D135
:10232000A2EB0C03934313EACC130BD150F8042B0C
:1023300051F8043B9A4209D1A2EB0C03934313EAF0
:10234000CC13DBD04FF00000704700BFD01A01BAA9
:10235000B1FA81F101F0180122FA01F0CB40C1F18C
:102360002001DBB2C0B2C01A2CFA01F3D11A91439A
:1023700011EAC311E6D17047B2F120030AD5C2F1C8
:10238000200301FA02F120FA03F300FA02F041EA15
:102390000301704700FA03F14FF0000070473A283C
:1023A00000D2303820F02002412A01D3A2F13700B8
:1023B000884201D34FF0FF30704770470149182021
:1023C000ABBEFEE7260002005FEA400C08BF91F0BA
:1023D000000F4FEA8C234FEAC12243EA51514FEAE2
:1023E0001C5018BF00F5F0404FEA300018BF41F014
:1023F00000415FEA6C5C00F02980BCF1FF3F08BF40
:1024000040F080407047130C06BF12044FF0100CD0
:102410004FF0000C130E04BF12020CF1080C130F46
:1024200004BF12010CF1040C930F04BF92000CF1D5
:10243000020CD30F04BF52000CF1010C11464FF0F7
:102440000002A0F11F00A0EB0C00704711F0004F3C
:1024500008BF704731F000413FF4D5AF0B0C06BF09
:1024600009044FF0100C4FF0000C0B0E04BF0902D2
:102470000CF1080C0B0F04BF09010CF1040C8B0FBD
:1024800004BF89000CF1020CCB0F04BF49000CF112
:10249000010CCCF12003A0EB0C0022FA03F302FAAA
:1024A0000CF241EA030100F10100704720F07F4C7B
:1024B00080EA030023F07F47ACEB070303F57C536E
:1024C00000F0004003F1FF032DE980494FEA154B6E
:1024D00009B44FEA144325EA0B4E24EA03480FF2ED
:1024E000042606EB132749083E785FEA320203FB15
:1024F0000667C7F5000707FB06F64FEA54374FEAB1
:10250000D64606F1020607FB066CCCF1005C4FEAEA
:102510001C472CEA074C07FB06F40CFB06F504EB02
:1025200015464FEA961634BF00204FF000404FEAA0
:10253000D13706FB07FC4FEA1C4C0CFB0BF7D21BF8
:1025400003FB0CF761EB07010CFB0EF7B0EB074048
:1025500072EB17420CFB08F734BFA2EB0742B2EB59
:10256000074261EB17414FEA0C444FEA910706FB23
:1025700007FC4FEA1C4C0CFB0BF7B0EBC74072EBAF
:10258000573203FB0CF734BFA2EBC742B2EBC74292
:1025900061EB57310CFB0EF7B0EBC70072EB5772D3
:1025A0000CFB08F734BFA2EBC702B2EBC70261EB2A
:1025B0005771039F4FEA816141EA921104EBCC0409
:1025C0004FEAD1374FEA826206FB07FC42EA9012DB
:1025D0004FEA80604FEA1C4C0CFB0BF7D21B03FB4D
:1025E0000CF761EB07010CFB0EF7B0EB074072EB49
:1025F00017420CFB08F734BFA2EB0742B2EB0742CD
:1026000061EB17414FEA8C554FEA910704EB9C248C
:1026100006FB07FC4FEA1C4C0CFB0BF7B0EBC7406A
:1026200072EB573203FB0CF734BFA2EBC742B2EB9D
:10263000C74261EB57310CFB0EF7B0EBC70072EBF2
:1026400057720CFB08F734BFA2EBC702B2EBC7020C
:1026500061EB577115EB4C254FEA816141EA92110C
:102660004FEA82624FEAD13742EA901206FB07FC3A
:1026700044F100044FEA80604FEA1C4C0CFB0BF75E
:10268000D21B03FB0CF761EB07010CFB0EF7B0EB61
:10269000074072EB17420CFB08F734BFA2EB07426E
:1026A000B2EB074261EB174115EB1C154FEA813184
:1026B00041EA92414FEA823242EA90424FEA803048
:1026C0004FEA0C7644F1000448EA03434EEA0B4813
:1026D0004FF0000EB2EB080C71EB030724BF62460B
:1026E00039464EEB0E0E4FF0000B00185241494197
:1026F0004BEB0B0BB2EB080C71EB03077BF1000B00
:1027000024BF624639464EEB0E0E4FF0000B001808
:10271000524149414BEB0B0BB2EB080C71EB030739
:102720007BF1000B24BF624639464EEB0E0E51EA98
:10273000020718BF46F0010616EB0E7655F10002AF
:1027400054F1000103D5BDE88901BDE80088BDE86A
:102750008901BDE80048B619524141EB0101A3F1DE
:102760000103704780807F7E7D7C7B7A79787776E5
:1027700076757473727171706F6E6E6D6C6C6B6A5E
:102780006A696868676666656464636362616160FC
:10279000605F5F5E5E5D5D5C5C5B5B5A5A59595879
:1027A00058575756565555555454535352525251E3
:1027B000515050504F4F4F4E4E4D4D4D4C4C4C4B39
:1027C0004B4B4A4A4A494949484848474747474680
:1027D00046464545454444444443434343424242BC
:1027E0004241414146EA0646A3F570534FEA164678
:1027F00046EA42564FEAD22242EA415210B54FEA27
:10280000D121A3F1010300F02FF820F0004000F1E6
:10281000020C00F0004701EB00501146BCF5006FC0
:1028200040EA070000D210BDBAF1000F0AD01CB573
:1028300003B44FF004004FF004014FF000000FBC50
:10284000BDE810404FF00001BBF1010FB9BF0448D3
:102850004FF0FF310348002140EA070010BD00BFE0
:10286000FFFFEF7F0000F07F002B9C4630D4770005
:102870002BD01CB54FEA370703B44FF010004FF0D0
:102880001001BAF1000F06D0BCF1000FDCBF40F020
:10289000080040F008014FF000000FBCBDE81040F8
:1028A0000BF1010BBBF1010F08BF5FEA170722BF55
:1028B00012F1010211F101014FF0004143F1000357
:1028C00000F0004043EA00007047F9D35708D0E712
:1028D00046EA064613F1400F4FEA16461FDD13F194
:1028E000200FDFBF16430A46002120335B42BED0D3
:1028F000C3F1200746EA064602FA07F74FEA1646F2
:1029000046EA0706C3F1200722FA03F201FA07F7A5
:1029100021FA03F14FF0000342EA0702A7E746EA73
:10292000020646EA06464FEA164646EA0106BCBFDC
:1029300046EA0646360C4FF000034FF000024FF017
:10294000000194E72DE9804C9A46934670B491E8D3
:10295000380007C831EA400C48BF34EA430C03D5BD
:10296000FFF7A4FDFFF780FFF0BCBDE8008C2DE968
:10297000804C9A46934670B491E8380007C831EA13
:10298000400C48BF34EA430C03D5FFF78FFDFFF737
:1029900029FFF0BCBDE8008C2DE9804C9A46934697
:1029A00070B491E8380007C810F0804F08BF13F0EA
:1029B000804F03D100F01AF8FFF756FFF0BCBDE8D6
:1029C000008C2DE9804C9A46934670B491E838000B
:1029D00007C810F0804F08BF13F0804F03D100F0FC
:1029E00005F8FFF7FFFEF0BCBDE8008C20F07F4744
:1029F00080EA030023F07F4C07EB0C03A3F57C5324
:102A000000F00040A3F1FE0392F0000F00F0B3804D
:102A100095F0000F00F077802DE901494FEA114051
:102A20004FEA144621EA004800FB06FC24EA064768
:102A300008FB06F607FB08F800FB07F718EB06484B
:102A40004CEB164C4FEA124B18EB07484FEA154671
:102A50004CEB174022EA0B4E0BFB06FC25EA06471F
:102A60000EFB06F607FB0EFE0BFB07F71EEB064EF2
:102A70004CEB164C4FF000061EEB074E4CEB174B81
:102A800018EB0B0840F1000018EB0E0B58EB000898
:102A900040F100008F1A4FF000013CBFC943661B94
:102AA00014BFB5EB040C00213CBFC943F61B4FEA31
:102AB00017444EEA8E0E27EA04454FEA1C4704FBF2
:102AC00007622CEA074C05FB07F70CFB05F604FB35
:102AD0000CFC16EB074642EB174216EB0C4642EB9A
:102AE0001C421BEB060658EB0202414146EA9E06D9
:102AF00001D5BDE80189B619524141EB0101A3F1AD
:102B00000103BDE801894FEA14454FEA114724EA61
:102B1000054621EA074C05FB07F406FB07F70CFB0B
:102B200006F105FB0CFC11EB074144EB17444FEA9F
:102B3000124711EB0C4144EB1C4422EA074C05FB05
:102B400007F206FB07F70CFB06F605FB0CFC16EB81
:102B5000074642EB174216EB0C4642EB1C456A183F
:102B600054F1000148BF7047B619524141EB0101D1
:102B7000A3F10103704795F0000F37D04FEA1142DF
:102B80004FEA144721EA024624EA074C02FB07F108
:102B900006FB07F70CFB06F402FB0CFC14EB0744E6
:102BA00041EB17414FEA154714EB0C4441EB1C4134
:102BB00025EA074C02FB07F506FB07F70CFB06F6B8
:102BC00002FB0CFC16EB074645EB174516EB0C46D3
:102BD00045EB1C42121951F1000148BF7047B6196C
:102BE000524141EB0101A3F1010370474FEA144543
:102BF0004FEA114724EA054621EA074C05FB07F195
:102C000006FB07F70CFB06F24FF0000605FB0CFC79
:102C100012EB074241EB174112EB0C4251EB1C4106
:102C200048BF7047921841EB0101A3F101037047BF
:102C30000148806870470000340000200148C068E7
:102C4000704700003400002010B5FF2205490648F7
:102C500001F014FF05480021016041608160C160FE
:102C600010BD0000510D00203C0200203400002067
:102C70002DE9F0410E48C06B00684068FF26C0F1A6
:102C8000FF00B0FBF6F10B4C06FB11050A4F206864
:102C900009E0385C02F062F92068401CB0FBF6F1F4
:102CA00006FB11002060A842F3D1BDE8F0810000CE
:102CB0003C02002034000020510D0020FEE7884235
:102CC00003DB904201DC01207047002070470000C8
:102CD0002DE9F04700270425DFF8A08050383E4654
:102CE00001F1060A102847D2DFE800F01108130CA2
:102CF0001517191B1D1F214646464623342403255C
:102D0000402702E03D2403252E27012613E030242E
:102D100011E037240FE03A240DE041240BE0452474
:102D200009E0492407E04D2405E0512403E055243F
:102D300001E0D8F82440DFF84890032A19D04DB1BB
:102D40006A0009EB4400FDF7F1FAD8F8142029468F
:102D500020469047002E0FD0720009EB47005146E5
:102D6000FDF7E4FA31463846D8F81420BDE8F047BC
:102D7000104703250026E3E7BDE8F0874800002060
:102D8000DC0F00202DE9F041074601F05EFB7148A1
:102D9000A0F18005D5F8051040F87F1FD5F809107F
:102DA0004160B5F80D100181F86B00684068C0F112
:102DB000FF00C6B268793A280AD1A8796649312855
:102DC00002D0302802D003E0012000E0002008807B
:102DD0002878624C70285ED073286ED1E87870280D
:102DE00010D008DC61282FD064281BD0692811D0AE
:102DF0006F2850D11EE0732844D0742838D076282C
:102E000049D12BE054495348091D7F3003F0C0FEDF
:102E1000206040E050494F48091D7F3003F0B8FE64
:102E2000606038E04C494B48091D7F3003F0B0FE2C
:102E3000A06030E048494748091D7F3003F0A8FEF4
:102E400004F05AFAE06026E043494248091D7F3009
:102E500003F09EFE04F050FA20611CE03E493D481C
:102E6000091D7F3003F094FE04F046FA606112E021
:102E700039493848091D7F3003F08AFE04F03CFAD6
:102E8000A06108E034493348091D7F3003F080FE1B
:102E900004F032FAE061E8786F2827D006DC612878
:102EA0002ED064281AD0692847D10FE0702805D0A9
:102EB00073282FD0762840D136E03EE026492548B9
:102EC000091D7F3003F064FE206236E0224921486C
:102ED000091D7F3003F05CFE60622EE01E491D4834
:102EE000091D7F3003F054FEA06226E01A491948FC
:102EF000091D7F3003F04CFE04F0FEF9E0621CE097
:102F000015491448091D7F3003F042FE04F0F4F91E
:102F1000206312E010490F48091D7F3003F038FE8E
:102F200004F0EAF9606308E00B490A48091D7F30A4
:102F300003F02EFE04F0E0F9A06306483146803825
:102F4000FDF76BFA3846BDE8F0410249FF228039AF
:102F500001F094BD2C0500201C000020AC0A0020CC
:102F600005480068C16841F01001C160FF220349B3
:102F7000014801F083BD000084020020AC04002061
:102F8000084A016882B0914209D10A68D243D20648
:102F900005D40A684968009102B0FFF7F3BE02B099
:102FA0007047000000440040014800F083BC00006E
:102FB00068040020014800F07DBC000024040020CB
:102FC000014800F077BC000058030020014800F0E1
:102FD00071BC000014030020014800F06BBC00002D
:102FE0009C030020014800F065BC0000E0030020C5
:102FF00030B590F840500124AC40C56B6C6004685B
:1030000063604368102B036803D099600068C26056
:1030100030BD9A600068C16030BD70473C220149F4
:10302000FDF7C9B9AC0A002000F0DEBD72B6FEE7BC
:1030300090F82020012A07D0022A05D0416A41F4E5
:103040008021416201207047006842690A43426161
:1030500000207047F0B590F820500468A468012D56
:1030600005D0022D03D0416A41F4802157E014F0CD
:10307000406F01D1E5004FD5C4F301640125A5409F
:103080001D608B684FF4C0759BB1CE6833434E68AA
:1030900043EAC603066805EB0417F3514FF4C27305
:1030A000076803EB04130E69FE50097D012905D062
:1030B00009E00E88CB6843EA4653EBE70168CE5837
:1030C00046F48076CE501179D379567941EA03617E
:1030D00093791B0443EA062319434FF4C676036829
:1030E00006EB041699511178D37841EA036193787D
:1030F00052781B0443EA022211434FF4C47302685E
:1031000003EB0413D150006805EB0411425842F060
:10311000010242500020F0BD416A41F400114162B9
:103120000120F0BD10B590F820300268012B07D0C7
:10313000022B05D0416A41F480214162012010BD7B
:10314000D2F8000240F00100C2F80002087D00F051
:103150001F0301209840D2F81C328343C2F81C326E
:10316000CB69B3B9D2F80C328343C2F80C328C89E4
:103170004B6864F31F434C6902EBC404C4F840324B
:103180000C890B6864F31F434C6902EBC404C4F858
:103190004432CB69012B16D1D2F80C320343C2F86A
:1031A0000C320C884B6864F31F434C6902EBC40477
:1031B000C4F840320C89CB6864F31F434C6902EBBE
:1031C000C404C4F844328B69002BD2F804320ED008
:1031D0000343C2F804320B69002BD2F8143208D032
:1031E0000343C2F81432096A012904D008E083437A
:1031F000EFE78343F5E7D2F81C120143C2F81C1233
:10320000D2F8000220F00100C2F80002002010BD38
:10321000704770B590F82040012C05D0022C03D0E7
:10322000416A41F4802128E0046809B32469A407B5
:1032300020D04FF4D874056804EB01142D5915F013
:103240000405956005682D591AD0ED08556005688C
:103250002C5904F00204D4604FF4DA74056804EBCE
:1032600001142E5906F00F06082E0CD308250DE088
:10327000E468DCE7416A41F400114162012070BD5D
:103280006D0D1560E3E72D5905F00F051561056813
:103290002D59C5F30725956105682C59240C5461F7
:1032A0004FF4DC72046802EB0112A4581C7004682D
:1032B000A458240A5C700468A458240C9C70046808
:1032C000A258120EDA704FF4DE72046802EB01129B
:1032D000A4581C710468A458240A5C710468A4589A
:1032E000240C9C710468A258120EDA71006829B18E
:1032F000016941F020010161002070BDC16841F009
:103300002001C160F8E72DE9F05F05460068002460
:103310004669D0F804908768D0F80CB0D0F810A0B7
:10332000D0F81880F10748D0F90714D00121816046
:10333000B80703D5284600F0FCF90CE0780702D561
:103340004FF4006407E0380702D54FF4805402E0E0
:10335000284600F0EDF9F80516D529684FF480707D
:103360008860B80503D5284600F0E5F90CE078053B
:1033700002D544F4005407E0380502D544F48044F3
:1033800002E0284600F0D6F9F80316D529684FF474
:1033900080308860B80303D5284600F0CEF90CE0F1
:1033A000780302D544F4004407E0380302D544F41E
:1033B000803402E0284600F0BFF9300707D55FEA05
:1033C000CB6004D52968102044F40074C8607007ED
:1033D0004FF0080707D55FEA0B7004D52868C7606F
:1033E000284600F059F9B00706D52868C06880075C
:1033F00002D0284600F052F9700607D55FEACA608D
:1034000004D52968102044F480640861B00607D50B
:103410005FEA0A7004D528680761284600F05AF967
:10342000F00606D528680069800702D0284600F01B
:1034300052F9B00308D55FEAC96005D529681020A4
:103440004860284600F048F9F00307D55FEA0970A4
:1034500004D528684760284600F070F9300446D546
:103460005FEA497040D5F00504D55FEAC87001D025
:1034700044F00104B00504D55FEA887001D544F03A
:103480000204700504D55FEA487001D544F00404D5
:10349000300529D518F0700F26D008F070004028AC
:1034A00015D006DC102809D020280AD0302816D1E3
:1034B0000AE050280ED0602811D10EE044F0080434
:1034C0000DE044F010040AE044F0200407E044F06A
:1034D000400404E044F0800401E044F4807428686F
:1034E000816921F070018161296804204860002C05
:1034F00005D0686A204368622846FFF789FEBDE868
:10350000F09F70B5040003D094F8200010B104E0DF
:10351000012070BD204600F081F82068016841F06C
:103520000101016000F070FC0546052604E000F092
:103530006BFC401B0A2811D820684068C007F6D0F1
:103540002068016821F00201016000F05DFC054681
:103550000BE000F059FC401B0A2806D9606A40F4D1
:103560000030606284F82060D2E7206840688007FD
:10357000EFD4207E0128206801683DD021F0800131
:103580000160607E01282068016838D021F0400188
:103590000160A07E01282068016833D021F020015D
:1035A0000160E07E0128206801682ED041F0100102
:1035B0000160207F01282068016829D021F00801DE
:1035C0000160607F01282068016824D021F0040197
:1035D0000160D4E902010843D4E90412114308430D
:1035E0006168491E08432168C861002060620120AB
:1035F00084F82000002070BD41F08001C0E741F058
:103600004001C5E741F02001CAE721F01001CFE7F2
:1036100041F00801D4E741F00401D9E710B586B0C4
:10362000002100910191029103910068174988429D
:103630002AD11748C16941F00071C161C16901F027
:1036400000710491816941F0040181618069114C2C
:1036500000F0040004904FF400600090694620469A
:1036600000F0D4FAA11400910221019103210391E9
:103670006946204600F0CAFA00221146142000F0E4
:103680002FFC142000F01EFC06B010BD00640040AA
:1036900000100240000801407047000010B50B4BBD
:1036A0000B4A0021FFF7B5FD00280DD108488168BD
:1036B000042907D002680648BDE810400349E038F5
:1036C00002F0CEB94268F6E710BD0000010000200C
:1036D000B001002070477047704770B5044690F8FD
:1036E0002000012804D0606A40F40020606217E0E6
:1036F000022084F820002068016821F001010160A7
:1037000000F082FB05460DE000F07EFB401B0A281E
:1037100008D9606A40F400306062052084F8200017
:10372000012070BD20684068C007EDD1606270BDA7
:10373000704770477047704770477047704710B5C3
:1037400090F821100022022905D00421816380F81D
:103750002020012010BD01680B6823F00E030B60D0
:1037600001680B6823F001030B6090F840300124DE
:1037700004FA03F1C36B596080F8214080F82020DF
:10378000104610BD2DE9F05F90F8211000240229A9
:1037900003D004218163012485E001680A6822F0D6
:1037A0000E020A6001680A6822F001020A603F4EB8
:1037B0003E4FB215DFF8F4C0DFF8F090DFF8ECA070
:1037C000DFF8E8B0DFF8E4E00168783F13011502A4
:1037D000ACF1640CA9F15009AAF13C0AABF1280B39
:1037E000AEF1140E4FF48018B14227D9B9420ED071
:1037F000614512D049451DD0514518D0594518D0C2
:10380000714501D1424615E0294EB14201D1012254
:1038100010E0274E1436B14201D110220AE0244EA6
:103820002836B14206D0224A3C32914201D11A4692
:1038300000E02A461E49091F0A602BE0B94213D056
:10384000614517D0494522D051451DD059451DD05D
:10385000714501D142461AE0B14202D14FF0807267
:1038600015E0134EB14201D1012210E0104E143682
:10387000B14201D110220AE00D4E2836B14206D0E5
:103880000B4A3C32914201D11A4600E02A460749D0
:1038900080394A60012180F82110002180F8201031
:1038A000416B01B188472046BDE8F09F800002408F
:1038B000080402402DE9F05FC16B0B6801680A68DB
:1038C000046C4FF0040808FA04F8844D844E854FC8
:1038D000DFF814C2DFF81492DFF814A2DFF814B294
:1038E000DFF814E218EA030F65D05FEA427862D588
:1038F0000A68920603D40A6822F004020A60DFF81C
:10390000F0814FF48062016808F114081301140279
:10391000414524D9A9420DD0B1420FD0B9421AD0A5
:10392000614515D0494515D0514501D1120312E02A
:10393000594501D104220EE0714501D140220AE02F
:103940006D4D1435A94206D06B4A2832914201D1FF
:103950001A4600E022466749091F0A6029E0A94289
:1039600013D0B14215D0B94220D061451BD0494592
:103970001BD0514502D14FF4800217E0414502D1DE
:103980004FF0806212E0594501D104220EE07145EA
:1039900001D140220AE0584D1435A94206D0564ABA
:1039A0002832914201D11A4600E022464B4908399B
:1039B0004A60C16A71E04FF0020808FA04F818EA98
:1039C000030F70D05FEA82786DD50A68920606D43C
:1039D0000A6822F00A020A60012180F82110DFF84B
:1039E00010814FF40072016808F1140813011402E9
:1039F000414524D9A9420DD0B1420FD0B9421AD0C5
:103A0000614515D0494515D0514501D1120312E049
:103A1000594501D102220EE0714501D120220AE070
:103A2000354D1435A94206D0334A2832914201D18E
:103A30001A4600E022462F49091F0A6029E0A942E0
:103A400013D0B14215D0B94220D061451BD04945B1
:103A50001BD0514502D14FF4001217E0414502D16D
:103A60004FF0007212E0594501D102220EE071457B
:103A700001D120220AE0204D1435A94206D01E4A69
:103A80002832914201D11A4600E0224613490839F2
:103A90004A60002180F82010816A00291CD0BDE80E
:103AA000F05F0847FFE70825A5401D4214D0120724
:103AB00012D50A6822F00E020A6090F84020C36B0B
:103AC000012101FA02F25A60816380F8211000217D
:103AD00080F82010016BE0E7BDE8F09F080002408D
:103AE0001C000240300002404400024058000240E6
:103AF0006C000240080402401C04024030B560B172
:103B00001A4B01681422994209D2194B0B44B3FB9A
:103B1000F2F292000264174A0AE0012030BD134B12
:103B20005B420B44B3FBF2F2920002640F4A083A84
:103B3000C263022280F821200A6843F6F0739A4398
:103B4000F0E901342343D0E902452C4323430469BF
:103B50002343446923438469234313430B600021B7
:103B60004163012242770177084630BD08040240D4
:103B7000F8FFFDBF0000024070B5044690F8200039
:103B8000002501280CD0012084F8200094F8216041
:103B90000020012E06D084F820000225284670BDA2
:103BA000022070BD022684F82160A06320680668A8
:103BB00026F0010606602046FFF71AFAE06A0028A0
:103BC0002068016802D041F00E0106E021F00401F6
:103BD00001602068016841F00A0101602068016805
:103BE00041F001010160D9E770B5044600F00CF91D
:103BF0000546601C02D004480078044400F004F933
:103C0000401BA042FAD370BD100000202DE9F84FF0
:103C1000DFF8C0910024A9F1040B23464FF00F08F0
:103C200009F1040AABF1040ECCE00127A7403A40A9
:103C3000BA4272D1DFF8A0C14D68A5EB0C0665450C
:103C40002BD00DDC032D34D005DC35B3012D19D07C
:103C5000022D2FD11BE0112D16D0122D2AD119E0E3
:103C6000B6F5881F19D006DCB6F5803F15D0B6F53D
:103C7000801F1FD111E0B6F5001F0ED0B6F5041F4E
:103C800018D10AE0CB6815E0CB681B1D12E0CB68A9
:103C900008330FE0CB680C330CE08B682BB1012BA1
:103CA0004FF0080303D0476104E0042302E00761FA
:103CB00000E00023FF2A01D8064601E000F10406D7
:103CC0004FEA840501D9A5F12005376808FA05FCFB
:103CD00027EA0C0703FA05F547EA050737604D6840
:103CE000ED006ED53D4DAE6946F00106AE61AD69A1
:103CF00024F0030605F001050095394D7719BE68DB
:103D0000A5072D0F08FA05FC26EA0C06DFF8D4C03B
:103D1000604503D14FF0000C25E052E0DFF8C8C049
:103D2000604502D14FF0010C1DE0DFF8C0C06045D6
:103D300002D14FF0020C16E0DFF8B4C0604502D1AA
:103D40004FF0030C0FE0DFF8ACC0604502D14FF03C
:103D5000040C08E0DFF8A0C0604502D14FF0050C6C
:103D600001E04FF0060C0CFA05FC4CEA060CC7F813
:103D700008C04D68D9F80060ED024D4601D51643E4
:103D800000E096432E604D68DAF80060AD025546BB
:103D900001D5164300E096432E604D68DBF80060C5
:103DA000AD035D4601D5164300E096432E604D6895
:103DB000DEF80060ED03754601D5164300E096433A
:103DC0002E60641C0A6832FA04F57FF42EAFBDE859
:103DD000F88F00000804014000001110001002409C
:103DE0000000014000080140000C014000100140AB
:103DF0000014014000180140001C01400AB101619B
:103E000070470904FBE70000014880687047000024
:103E100010000020024881680278114481607047D8
:103E200010000020074810B5016841F01001016042
:103E3000032000F075F80F2000F006F800F024F8D9
:103E4000002010BD0020024070B50D4D04464FF417
:103E50007A712878B1FBF0F00A490968B1FBF0F0FB
:103E600000F0DEFA48B9102C07D200222146501E7D
:103E700000F036F800206C6070BD012070BD0000BD
:103E8000100000200C0000200C4808B5816941F0AA
:103E900001018161816901F001010091C16941F075
:103EA0008051C161C069064900F0805000904868A7
:103EB00020F0E06040F00070486008BD0010024053
:103EC00000000140002809DB00F01F0201219140A1
:103ED0004009800000F1E020C0F8001170470000A8
:103EE000F0B40E4B1B68C3F30223C3F10704042C88
:103EF00000D904241D1D072D01D2002300E0DB1E84
:103F0000012606FA04F56D1E0D409D409E40761E6A
:103F1000164045EA0601F0BC02F08CBB0CED00E057
:103F2000064A00F0070110684FF6FF03184040EA08
:103F30000120034908431060704700000CED00E0C9
:103F40000000FA052DE9F0470D46040067D0DFF8C0
:103F50001881D8F8000000F00700A8420CD2D8F869
:103F6000001021F007012943C8F80010D8F800001C
:103F700000F00700A84252D120683C4E810712D5BC
:103F8000400703D5706840F4E06070602078000757
:103F900003D5706840F4605070607068A16820F0CC
:103FA000F000084370602078C00727D060680128BF
:103FB00010D03168022810D0890700292FDA7168E3
:103FC00021F0030101437160FFF71EFF074641F234
:103FD00088390CE031688903EFE78901EDE7FFF7E5
:103FE00013FFC11B494502D90320BDE8F087706863
:103FF000616800F00C00B0EB810FF0D1D8F8001030
:10400000404601F00701A9420BD9016821F00701E0
:1040100029430160006800F00700A84201D0012098
:10402000E3E72078400705D57068E16820F4E06098
:10403000084370602078000706D57068216920F475
:10404000605040EAC100706000F038F87168084ABA
:10405000C1F30311515CC840064908600648006876
:10406000FFF7F2FE0020C0E70020024000100240EF
:104070006C7800080C00002014000020044805495A
:1040800000684968044AC1F30221515CC840704786
:104090000C000020001002407C780008044805490C
:1040A00000684968044AC1F3C221515CC8407047A6
:1040B0000C000020001002407C7800080E4B59686C
:1040C0000E4801F00C02042A11D0082A0FD10C4826
:1040D000C1F38342C903805C0AD55968084AC1F319
:1040E0004041921E515C054A5043B0FBF1F07047CD
:1040F00004494843704700000010024000127A0053
:104100008678000800093D002DE9F84F04006FD0C3
:104110002078BE4DC00747D06868C0F381000128F1
:1041200007D06868C0F38100022809D16868C0031D
:1041300006D52868800337D560680028E7D033E0CB
:104140006068B0F5803F0BD010B1B0F5A02F11D052
:10415000286820F480302860286820F4802002E05D
:10416000286840F480302860606888B1FFF74CFE12
:10417000064609E0286840F480202860F0E7FFF751
:1041800043FE801B642873D828688003F7D50BE0B2
:10419000FFF73AFE064604E0FFF736FE801B642870
:1041A000F1D828688003F7D42078DFF8648280078C
:1041B0004FF0010A4FF0000939D5686810F00C0F74
:1041C00007D06868C0F38100022809D16868C0037D
:1041D00006D42868800714D52069012808D110E08A
:1041E0002069B0B1C8F800A0FFF70EFE064605E052
:1041F00007E1FFF709FE801B0228C4D82868800762
:10420000F7D52868616920F0F80040EAC10028600D
:104210000DE0C8F80090FFF7F7FD064604E0FFF751
:10422000F3FD801B022823D828688007F7D4207864
:1042300000072CD57748A169D9B1C0F800A0FFF7D5
:10424000E3FD064604E0FFF7DFFD801B02280FD8E0
:10425000686A8007F7D570484FF4FA510068B0FBE0
:10426000F1F0009000BF0098411E0091FAD20EE0DC
:104270007CE0C0F80090FFF7C7FD064604E0FFF7BA
:10428000C3FD801B022871D8686A8007F7D42078A4
:1042900040075BD5E8690027C00008D4E86940F012
:1042A0008050E861E869012700F0805000905B4889
:1042B0000168C90511D40168834641F48071016029
:1042C000FFF7A2FD064604E0FFF79EFD801B642871
:1042D0004CD8DBF80000C005F6D5E06801280AD00C
:1042E00008B1052813D0286A20F001002862286A46
:1042F00020F0040002E0286A40F001002862E06833
:1043000041F2883B88B1FFF77FFD064609E0286A45
:1043100040F004002862EEE7FFF776FD811B594567
:104320005BD8286A8007F7D50BE0FFF76DFD0646DE
:1043300004E0FFF769FD811B59454ED8286A8007C4
:10434000F7D41FB1E86920F08050E861E069A8B3B4
:104350006968C1F38101022946D00228484606D087
:10436000C8F86000FFF750FD044639E035E04746E5
:10437000C8F86000FFF748FD064604E0FFF744FD7B
:10438000801B022829D828688001F7D4206AB0F55C
:10439000803F05D16868A16820F400300843686058
:1043A000D4E908010843696821F47411084368607E
:1043B000C7F860A0FFF728FD044605E023E0FFF7FB
:1043C00023FD001B022808D828688001F7D51AE0D1
:1043D000FFF71AFD001B022802D90320BDE8F88F61
:1043E00028688001F4D40EE00128F7D06868226ABA
:1043F00000F48031914204D1616A00F47010884267
:1044000001D00120EAE70020E8E7000000100240A8
:1044100000004242800442420C0000200070004034
:1044200010B5401EB0F1807F01D3012010BD4FF0C8
:10443000E02460610F21601702F0FCF80020A06109
:1044400007202061002010BD704710B504460068A9
:10445000406994F84110C0F3C010212911D180B1F6
:104460002068143050E8001F21F0800140E800125D
:10447000002AF5D1A06B08B1FFF761F9204600F0E2
:10448000DBFE2068406994F84210C0F380102229B6
:1044900011D180B12068143050E8001F21F0400194
:1044A00040E80012002AF5D1E06B08B1FFF747F9A8
:1044B000204600F09AFE002010BD7047F8B5016854
:1044C00004460868CA684B6910F00F0F4FF00005EA
:1044D00059D003F0010602F49077374365D0C10745
:1044E00005D0D10503D5616C41F00101616441073C
:1044F00005D5D90703D0616C41F0020161648107E1
:1045000005D5D90703D0616C41F00401616401074E
:1045100007D502F02001314303D0616C41F008015E
:104520006164616C00293AD0800604D5900602D5FA
:10453000204600F08FFE20684069616CC0F3801057
:10454000090700D460B3204600F04FFE20684069A0
:10455000400621D52068143050E8001F21F04001AA
:1045600040E80012002AF5D1E06BA8B16D49416323
:10457000E06BFFF707F9002811D0E06B416B01B049
:10458000BDE8F040084783060FD593060DD52046B9
:10459000BDE8F84000F05EBE2046FFF78EFFF8BD94
:1045A0002046FFF78AFF6564F8BD266B2023012EA5
:1045B0007CD1C6067AD5D60678D5086848680090BA
:1045C00048694FF00206400640D5E16B0868406834
:1045D0000004000CE8D0A28D8242E5D9E08588690C
:1045E00020282DD020680C3050E8001F21F4807165
:1045F00040E80012002AF5D12068143050E8001F6E
:1046000021F0010140E80012002AF5D120681430A1
:1046100050E8001F21F0400140E80012002AF5D1C7
:1046200084F84230256320680C3050E8001F21F0E8
:10463000100140E80012002AF5D1E06BFFF77FF887
:104640006663A08DE18D401A81B22AE0A08DE18DD4
:10465000401A81B2E08D0028A6D00029A4D020689D
:104660000C3050E8002F22F4907240E80027002F11
:10467000F5D12068143050E8002F22F0010240E804
:104680000027002FF5D184F84230256320680C30D4
:1046900050E8002F22F0100240E80023002BF5D153
:1046A00066632046FFF7D0FEF8BDFFE705062BD571
:1046B000150629D594F841002128F5D1A068B0F558
:1046C000805F01D12069B0B1206A411C216221685C
:1046D00000784860E08C401E0004000CE084E3D1C8
:1046E0002068C16821F08001C1602068C16841F084
:1046F0004001C160D8E7206A0088C0F30800486024
:10470000206A801C2062E5E74006CDD55006CBD557
:10471000CA68204622F04002CA6084F8413000F0A6
:1047200071FAC1E7A150000870B5040004D094F8F4
:104730004100002510B106E0012070BD84F8405012
:10474000204600F023F8242084F841002068C16846
:1047500021F40051C160204600F0DEFD20680169AF
:1047600021F4904101612068416921F02A014161F1
:104770002068C16841F40051C1606564202084F85C
:10478000410084F842006563002070BD2DE9F04FC0
:1047900085B0002500950195029503950446AB4B25
:1047A0000168AB480222DFF8ACA24FF0030C4FF0D7
:1047B000040B99422ED1C16941F48011C161C169D4
:1047C00001F480110491816941F0100181618169D6
:1047D00001F010010491816941F02001816180693B
:1047E000694600F020000490D002CDE90002CDF827
:1047F0000CC05046FFF70AFACDE900B56946964865
:104800000295FFF703FA002211463520FFF768FBF7
:1048100035205BE0DFF84482914B202780264FF063
:104820001009414557D1816941F480418161816915
:1048300001F480410491816941F004018161806942
:10484000694600F0040004905815CDE9000298462E
:10485000CDF80CC01846FFF7D9F9F000CDE90005F6
:10486000694640460295FFF7D1F9DFF8FC817D49A2
:104870004046C0E90015C0E90256C8F81050C8E922
:104880000557C8F81C50FFF739F908B1FEF7CEFB01
:10489000754FC4F83C804437C8F82440C7E9025635
:1048A0003D6170487D61BD611438FD61C7E9000953
:1048B0003846FFF723F908B1FEF7B8FBA7630022DB
:1048C000114625207C62FFF70BFB2520FFF7FAFA43
:1048D00005B0BDE8F08FDFF89481414554D1C1693E
:1048E00041F40031C161C16901F400310491816971
:1048F00041F0040181618069694600F00400CDE95E
:1049000003C0CDE900B298461846FFF77FF90820AA
:10491000CDE90005694640460295FFF777F9DFF8D3
:104920004881504908F1880840461431C0E9001513
:10493000C0E90256C8F81050C8E90557C8F81C501D
:10494000FFF7DCF808B1FEF771FB474FC4F83C8075
:10495000CC37C8F82440C7E902563D6141487D6123
:10496000BD612830FD61C7E900093846FFF7C6F888
:1049700008B1FEF75BFBA7630022114626207C628C
:10498000FFF7AEFA2620A1E7394B9942A0D1C169C1
:1049900041F48021C161C16901F4802104918169E0
:1049A00041F0100181618069694600F010000490B7
:1049B0001815CDE90002CDF80CC05046FFF726F9D6
:1049C0004FF40060CDE90005694650460295FFF7B7
:1049D0001DF92849486820F0300040F0E06040F0C0
:1049E00010004860DFF890801E4940462839C0E931
:1049F0000015C0E90256C8F81050C8E90557C8F8B4
:104A00001C50FFF77BF808B1FEF710FB1A4FC4F8F3
:104A10003C804437C8F82440C7E902563D6111483C
:104A20007D61BD613C38FD61C7E900093846FFF78B
:104A300065F808B1FEF7FAFAA763002211462720AD
:104A40007C62FFF74DFA272040E70000005000404D
:104A500000100240001001400014014000380140E5
:104A600000080140580002401403002000440040A8
:104A700000480040000001402404002090F842302B
:104A8000202B01D00220704721B11AB1002303630B
:104A900000F09EBC0120704790F84230202B01D0DE
:104AA0000220704721B11AB10023036300F0DABC81
:104AB0000120704710B50068074988420AD10748AD
:104AC000007800F065FDBDE810400122034904486C
:104AD000FFF7E2BF10BD000000500040440000207E
:104AE000F401002070472DE9F843044690F8410096
:104AF0001F4615460E46202802D00220BDE8F88346
:104B00008EB185B100206064212084F84100FFF758
:104B10007BF9A5848146E584A0684FF02008B0F5B4
:104B2000805F02D003E00120E8E7206910B135463C
:104B300000260EE000250CE08021204600F0ADFCB0
:104B4000A0B9BDB115F8010B21684860E08C401E8A
:104B5000E084E08C4B464FF0000200970028EBD138
:104B60004FF04001204600F098FC40B184F84180AD
:104B70000320C3E736F8020BC0F30800E4E784F82B
:104B800041800020BAE7000037B5044690F84100A4
:104B9000202801D002203EBD019951B34AB32162C1
:104BA000A284E28400206064212384F84130A56B54
:104BB000114BAB62A56B114BEB62A56B104B2B63DA
:104BC000A36B586320681346A56B021D2846FEF7A9
:104BD000D3FF21686FF0400008602068143050E86F
:104BE000001F41F0800140E80012002AF5D10020AA
:104BF0003EBD01203EBD00009F510008E15100086C
:104C0000B150000870477047FEE7000010B5502112
:104C1000002000F0A5FC174800F038FD164800F011
:104C2000ADFC164800F092FC0A20FEF7DDFF4BF2C7
:104C30008851692000F088FD0A20FEF7D5FF082082
:104C400000F02EFD0A20FEF7CFFF062000F052FDF7
:104C50000A20FEF7C9FF0021084600F075FD0A2072
:104C6000FEF7C2FFBDE81040012205490548FFF7E5
:104C700013BF0000795000081150000829300008C7
:104C800044000020F401002010B5FF22044905482B
:104C9000FFF7F4FE0448002141600170417010BD2F
:104CA000E80B0020CC020020280000202DE9F04174
:104CB0000D4800684068FF26C0F1FF00B0FBF6F128
:104CC0000A4C06FB11050A4F606809E0385C00F0E9
:104CD00071F96068401CB0FBF6F106FB11006060E2
:104CE000A842F3D1BDE8F081240400202800002070
:104CF000E80B002001460D4810B590F8410020282F
:104D000001D0022010BD0A48AA233522372400F81A
:104D1000013BFBF70BFB0649BB20224681F836001E
:104D2000BDE810400148FFF72FBF0000CC02002073
:104D3000E80A00200F4810B50D49016003214160C9
:104D400000214FF4A0228160C0E903124FF48002D9
:104D50004261017641768176C17601774177FEF72F
:104D6000D0FB002803D0BDE81040FEF75FB910BDAE
:104D700000640040CC0100201D4808B5416941F0A5
:104D8000010141614069002200F0010000901146DC
:104D90000C20FFF7A5F80C20FFF794F8002211462D
:104DA0000D20FFF79DF80D20FFF78CF8002211462B
:104DB0000E20FFF795F80E20FFF784F80022114629
:104DC0000F20FFF78DF80F20FFF77CF80022114627
:104DD0001020FFF785F81020FFF774F80022114625
:104DE0001120FFF77DF8BDE808401120FFF76AB8F1
:104DF0000010024030B585B000241C480094019496
:104E000002940394816941F004018161816901F098
:104E100004010491816941F010018161816901F00F
:104E200010010491816941F020018161816901F0E3
:104E300020010491816941F00801816180690C4D74
:104E400000F008000490012220212846FEF7D6FF3A
:104E500020210120CDE900100220CDE90240694661
:104E60002846FEF7D3FE05B030BD0000001002401A
:104E7000000C01400C4810B50A4901604FF416516E
:104E80004160002181600C22C160C0E9041281618F
:104E9000C161FFF749FC002803D0BDE81040FEF7D0
:104EA000C5B810BD00500040F40100200C4810B5FA
:104EB0000A4901604FF4E1314160002181600C2218
:104EC000C160C0E904128161C161FFF72DFC0028B7
:104ED00003D0BDE81040FEF7A9B810BD003801406E
:104EE0003C0200200C4810B50A4901604FF4E13142
:104EF0004160002181600C22C160C0E9041281611F
:104F0000C161FFF711FC002803D0BDE81040FEF797
:104F10008DB810BD00440040840200200C4810B53C
:104F20000A4901604FF4E1314160002181600C22A7
:104F3000C160C0E904128161C161FFF7F5FB00287F
:104F400003D0BDE81040FEF771B810BD0048004026
:104F5000CC020020FEE7FEE7704700007CB50D287C
:104F60001AD0114C0F4A002561680A2802D07F2907
:104F700013D310E000290FD05554009501AB6A46B9
:104F80000AA108480195FBF7B3F9022803D100985C
:104F9000A0600198E06065607CBD5054491C616070
:104FA0007CBD0000500E00203400002025662C251A
:104FB0006600000070B5134C00250126217831B140
:104FC000012909D0022906D1BB2811D017E0AA284F
:104FD00001D12670A56070BDA168352905D20A4AA5
:104FE0005054491CA1603529F5D30220207070BDB2
:104FF0000549352201F13500FBF798F966702570F7
:1050000070BD000028000020E70C00207047000061
:105010002DE9F0413D38022825D8144C34F97A0F97
:1050200002F0A6F96FF00E06314602F0DBFB104FDE
:10503000394602F0FDF90F4D2860B4F9020002F084
:1050400097F9314602F0CEFB394602F0F1F968607B
:10505000B4F9040002F08CF9314602F0C3FB394682
:1050600002F0E6F9A860BDE8F0810000DC0F002046
:1050700000003443D00E00208AB201464FF47A7308
:105080000148FFF730BD0000F4010020FEF7C2BE6A
:10509000704700000148FFF711BA0000F40100203A
:1050A00010B5406A0021C185C184FFF706FA10BD22
:1050B00070B5446A2068406994F84110C0F3C0108C
:1050C0000025212904D118B1E584204600F0B4F868
:1050D0002068406994F84210C0F38010222904D15E
:1050E00018B1E585204600F080F8606C40F01000B3
:1050F00060642046FFF7E1F970BD10B50146406AD3
:10510000096809684FF0000389062ED4C385016839
:105110000C3151E8002F22F4807241E80024002C69
:10512000F5D10168143151E8002F22F0010241E865
:105130000024002CF5D10168143151E8002F22F031
:10514000400241E80024002CF5D1202180F84210D3
:10515000016B012909D101680C3151E8002F22F0BF
:10516000100241E80024002CF5D14363016B0129B2
:1051700002D0FFF79FFC10BD818DFFF765F910BDD0
:1051800010B5406A01214163016B012902D0FFF78C
:10519000A9FC10BD818D4908FFF756F910BD10B567
:1051A0000146406A09680968890616D40021C1844D
:1051B0000168143151E8002F22F0800241E80023F9
:1051C000002BF5D101680C3151E8002F42F040026C
:1051D00041E80023002BF5D110BDFFF713FD10BDF2
:1051E00010B5406AFFF70FFD10BD01680C3151E8A2
:1051F000002F22F4907241E80023002BF5D10168C2
:10520000143151E8002F22F0010241E80023002B65
:10521000F5D1016B012909D101680C3151E8002F4A
:1052200022F0100241E80023002BF5D1202180F864
:10523000421000210163704701680C3151E8002FD2
:1052400022F0C00241E80023002BF5D1202180F894
:105250004110704708B590F84210222901D0022071
:1052600008BD81684FF48053994201D1026922B18F
:10527000826A99421BD049B10AE00268816A526889
:10528000C2F308020A80816A891C08E0016971B1D1
:105290000168496801F07F011170816A491C8162CF
:1052A000C18D491E0904090CC18503D01BE00168AA
:1052B0004968F1E70168CA6822F02002CA60016803
:1052C000CA6822F48072CA6001684A6922F0010249
:1052D0004A61202180F8421000214163026B012ABB
:1052E00003D0FFF7E7FB002008BD016301680C3124
:1052F00051E8002F22F0100241E80023002BF5D1E5
:1053000001680A68D20602D50A6849680091818D51
:10531000FFF79AF8E7E7000070B5044600680169F6
:10532000E26821F4405111430161A1682069014301
:10533000606901432068C26841F20C639A430A43E2
:10534000C26020684169A26921F440711143416142
:105350001E492068884202D1FEF7A0FE01E0FEF758
:105360008DFE00EBC00101EB00116068642280003B
:10537000B1FBF0F3B3FBF2F36FF018067343B1FB2C
:10538000F0F5B1FBF0F605EB8305322303EB0515D1
:10539000B5FBF2F5B6FBF2F605F0F00505EB0615E8
:1053A000B1FBF0F6B1FBF0F0B0FBF2F06FF01801DA
:1053B000484306EB800003EB0010B0FBF2F02168DD
:1053C00000F00F002844886070BD000000380140E4
:1053D00037B582B01346039A826204468385002063
:1053E0006064222184F84210E56B1B49A962E56BD9
:1053F0001A49E962E56B1A492963E16B4863216840
:10540000E06B091DFEF7B8FB20680168406800905A
:10541000206948B120680C3050E8001F41F48071C9
:1054200040E80012002AF5D12068143050E8001F2F
:1054300041F0010140E80012002AF5D12068143043
:1054400050E8001F41F0400140E80012002AF5D169
:1054500005B0002030BD0000FB500008815100085D
:10546000B150000881628285C285002141642221F9
:1054700080F84210016921B10168CA6842F4807263
:10548000CA6001684A6942F001024A610068C16865
:1054900041F02001C160002070472DE9F8431F460C
:1054A00090460D460446089E23E0701C21D0FEF76E
:1054B000ABFCC01BB0421AD8CEB12068C168490706
:1054C00017D5802D15D0402D13D00168C943090789
:1054D0000FD401680025406800902046FFF785FE44
:1054E0000820606484F840500120BDE8F883032060
:1054F000FBE72068006835EA000004D00020404542
:10550000D3D00020F1E70120F9E700000148FEF7C1
:10551000D5BF00003C02002010B50448FDF730FD67
:10552000BDE810400148FEF7C9BF0000840200201A
:105530000148FEF7C3BF0000CC0200200148FDF780
:10554000E2BE0000CC010020FEE7000018B10349D4
:105550008861002070476FF0050070474800002008
:10556000032802D96FF005007047034A10621170DA
:105570000020D061704700004800002018B10349A6
:105580004861002070476FF0050070474800002018
:105590002DE9FC413A4E7169002954D03949F2692C
:1055A0008854521CF261306A002430B101282ED098
:1055B000022863D003285ED160E00878552804D023
:1055C000521E3048491CF2613BE00B2A53D30A2794
:1055D0002C4D0023184615F800C0401C6344DBB274
:1055E000B842F8D3887A9842EAD14888ADF80000EA
:1055F0008888ADF80200C888ADF804000889ADF8C5
:105600000600487804226946FDF762FB36E0022A6C
:1056100031D948780328D3D18878401D904212D8D8
:1056200088180D4630F8020C921E47BA91B2154800
:1056300000F0EAFF874208D0F269691C521E114847
:10564000F261FAF773FEBDE8FC81A8780E4F4108BD
:105650000022706A0AE005EB420302EB000CB3F88B
:105660000330521C5BBA27F81C3092B28A42F2D344
:105670007269904702E0B2F5807FE4D1F461E2E71D
:1056800048000020DC0E0020DC0F002018B1034988
:105690004860002070476FF0050070474800002008
:1056A00070B5044640F6FF72012100B2FDF707FB1A
:1056B00040B14BF28851692000F046F86FF00205C6
:1056C000A0B902E06FF0050070BD094A116A012916
:1056D00001D011B104E0142000E001209169884755
:1056E000A1B2022000F030F80028EDD0284670BDAD
:1056F0004800002070B504460D22012100B2FDF7DC
:10570000DEFA40B14BF28851692000F01DF86FF0CD
:105710000205A0B902E06FF0050070BD094A116AE8
:10572000012901D011B104E0142000E001209169A9
:105730008847A1B2032000F007F80028EDD02846E2
:1057400070BD0000480000202DE9FC476FF0050AFD
:10575000902815D2334CCAB22546236A6E686FF082
:1057600004074FF0FF084FF0AA0900F0FF0C090AE8
:105770004BB12D78012B15D0022B30D0032B40D00C
:105780005046BDE8FC87DEB38DF800808DF80190AF
:105790008DF802C08DF804108DF8032005216846AD
:1057A000B0473AE066B306238DF800508DF801301B
:1057B000000A8DF802008DF804108DF803C08DF8F2
:1057C00005201946684600F01FFF010A8DF80610F3
:1057D0008DF8070062680821684690471DE023693C
:1057E00073B18DF800808DF801908DF802C08DF8AE
:1057F00003208DF8041005226946284698470CE0DE
:105800000DE0A4685CB18DF800208DF80110C1B2E4
:105810006806000E02236A46A0470020B1E738461A
:10582000AFE70000480000200179C27941EA026137
:1058300082794079120442EA0020084370472DE93A
:10584000F04105461F4616460C46104601F0EEFE96
:1058500080463146284601F0B7FE01D2354605E0C4
:105860002146284601F0B0FD00D225460120B8406F
:10587000401E01F07DFD06462146284601F0D6FE79
:10588000314601F0D5FD414601F074FCBDE8F04120
:1058900001F032BD2DE9F04101249C40641E00EA74
:1058A00004050F46104601F0C1FE0646204601F0F1
:1058B00077FD0446284601F073FD314601F0B8FD3E
:1058C000214601F057FC3946BDE8F04101F0DEBB4E
:1058D00030B58FB028216846FAF79FFD14210AA839
:1058E000FAF79BFD0120010400248DE813000490C9
:1058F0004FF4E010CDE90810022507956846FEF741
:1059000003FC08B172B6FEE70F20CDE90A054FF49B
:105910008060CDE90C4002210AA80E94FEF712FB2C
:10592000002801D072B6FEE70FB030BD014600205E
:105930004A0400D510200A0601D540F020000A07CD
:1059400001D540F008004A0701D540F001008A0760
:1059500001D540F00200C90701D040F004007047B3
:1059600010B588B00446002100F048F8002104205A
:105970000791CDE90201082006910490218A4FF099
:10598000C062207842EA01210843019001208DF88D
:105990001800054B06AA69460448FDF75BFB204644
:1059A00000F006F808B010BD24000020CC01002053
:1059B00000B590F8451089B021B109B05DF804EB4D
:1059C00000F05CB9002204210792CDE902120821FF
:1059D000069204910178008A4FF0407242EA00205A
:1059E00001430191034B06AA69460348FDF732FBC8
:1059F00009B000BD24000020CC01002010B50446F1
:105A000090F8450088B028B108B02046BDE81040A5
:105A100000F01CBA002006908DF8181007900421A1
:105A2000CDE9021008200490218A4FF0806220788E
:105A300042EA012108430190074B06AA694607483C
:105A4000FDF708FB6A23002247F20501204600F01B
:105A5000B7FB08B010BD000024000020CC010020DE
:105A60002DE9F84F0D46044690F84510DFF8E8811F
:105A7000DFF8E8C17A4FDFF8EC91DFF8ECA1DFF84E
:105A8000ECB11646D0B2A1B3FD2840D1E87838B9C0
:105A9000287928B9687918B9A87908B9E87948B394
:105AA000B5F80100102340BA42466146FFF7F2FE06
:105AB0002065E8782979000140EA11100C233A4664
:105AC0004946FFF7E7FE6065A8880C2340BA5246B6
:105AD0005946FFF7DFFEA065E88840BA01F026F9D5
